:020000040800F2
:100000000000022005080008E9070008EB070008C7
:10001000ED070008EF070008F107000800000000E6
:10002000000000000000000000000000F3070008CE
:10003000F507000800000000F7070008F9070008AE
:10004000550800085508000855080008550800081C
:10005000550800085508000855080008550800080C
:1000600055080008550800085508000855080008FC
:1000700055080008550800085508000855080008EC
:100080005508000855080008550800080000000041
:1000900000000000000000000000000055080008FB
:1000A00055080008550800085508000855080008BC
:1000B00055080008550800085508000855080008AC
:1000C000550800085508000855080008550800089C
:1000D00055080008550800085508000800000000F1
:1000E00055080008550800085508000800000000E1
:1000F000000000000000000000000000550800089B
:1001000000000000550800085508000855080008C0
:1001100000000000000000000000000000000000DF
:10012000550800085508000855080008550800083B
:10013000550800080000000000000000000000005A
:10014000000000000000000000000000550800084A
:10015000550800085508000855080008550800080B
:1001600055080008550800080000000000000000C5
:10017000000000000000000000000000000000007F
:10018000000000005508000800000000000000000A
:0801900055080008550800089D
:1001980010B5054C237833B9044B13B10448AFF3B9
:1001A80000800123237010BD3C04002000000000E3
:1001B800A416000808B5034B1BB103490348AFF365
:1001C800008008BD0000000040040020A4160008BC
:1001D80053B94AB9002908BF00281CBF4FF0FF31A6
:1001E8004FF0FF3000F074B9ADF1080C6DE904CEA2
:1001F80000F006F8DDF804E0DDE9022304B07047FA
:100208002DE9F047089E0D4604468846002B4DD13F
:100218008A42944668D9B2FA82F252B101FA02F3DC
:10022800C2F1200120FA01F10CFA02FC41EA0308AC
:1002380094404FEA1C45210CB8FBF5FE1FFA8CF7D9
:1002480005FB1E8341EA03430EFB07F199420BD9D4
:100258001CEB03030EF1FF3080F01E81994240F23F
:100268001B81AEF1020E63445B1AA4B2B3FBF5F036
:1002780005FB103344EA034400FB07F7A7420AD9F9
:100288001CEB040400F1FF3380F00881A74240F220
:10029800058164440238E41B40EA0E4000211EB187
:1002A800D4400023C6E90043BDE8F0878B4208D953
:1002B800002E00F0EE800021C6E900050846BDE8E2
:1002C800F087B3FA83F100294AD1AB4202D38242C4
:1002D80000F2F980841A65EB030301209846002E8A
:1002E800E2D0C6E90048DFE702B9FFDEB2FA82F2DF
:1002F800002A40F09180A1EB0C054FEA1C471FFA39
:100308008CFE0121B5FBF7F307FB1350250C45EADA
:1003180000450EFB03F0A84208D91CEB050503F1C4
:10032800FF3802D2A84200F2CB8043462D1AA4B26D
:10033800B5FBF7F007FB105544EA05440EFB00FE39
:10034800A64508D91CEB040400F1FF3502D2A645E6
:1003580000F2BB802846A4EB0E0440EA03409EE767
:10036800C1F120078B4022FA07FC4CEA030C20FA63
:1003780007F405FA01F31C43FD404FEA1C4900FA53
:1003880001F3B5FBF9F8200C1FFA8CFE09FB185590
:1003980040EA054508FB0EF0A84202FA01F20BD923
:1003A8001CEB050508F1FF3A80F08880A84240F26E
:1003B8008580A8F1020865442D1AA4B2B5FBF9F0AE
:1003C80009FB105544EA054500FB0EFEAE4508D969
:1003D8001CEB050500F1FF346CD2AE456AD9023832
:1003E800654440EA0840A0FB0294A5EB0E05A5422F
:1003F800C846A64656D353D05EB1B3EB080265EBA8
:100408000E0505FA07F722FA01F3CD401F43C6E9A6
:1004180000750021BDE8F087C2F1200320FA03F13E
:100428000CFA02FC25FA03F395400D434FEA1C47EA
:100438001FFA8CFEB3FBF7F107FB11302B0C43EAD4
:10044800004301FB0EF0984204FA02F408D91CEBB1
:10045800030301F1FF382FD298422DD902396344A2
:100468001B1AADB2B3FBF7F007FB103345EA03459F
:1004780000FB0EF3AB4208D91CEB050500F1FF3871
:1004880016D2AB4214D902386544ED1A40EA01414C
:1004980038E73146304607E78646E5E61846FAE685
:1004A8004B45A9D2B9EB020864EB0C0E0138A3E75F
:1004B8004046EAE7204694E74146D1E7D0467BE745
:1004C800023B654432E7084609E76444023842E7DC
:1004D800704700BF30B58BB000240594069407948C
:1004E800089409940094224B1A6B42F004021A6390
:1004F8001A6B02F004020092009A01941A6B42F0FF
:1005080080021A631A6B02F080020192019A029427
:100518001A6B42F001021A631A6B02F0010202928E
:10052800029A03941A6B42F008021A631A6B02F0DB
:1005380008020392039A04941A6B42F002021A63A7
:100548001B6B03F002030493049B0A4D22462A21E5
:10055800284600F021FB2A230593012306930794DC
:10056800089405A9284600F037FA0BB030BD00BF43
:1005780000380240000C024072B6FEE708B50A488F
:100588000A4B03604FF41653436000238360C36033
:1005980003610C2242618361C36100F0FDFE00B972
:1005A80008BDFFF7E9FF00BF580400200010014014
:1005B80000B595B03022002108A800F0ADFF002357
:1005C8000393049305930693079301931E4A116CB2
:1005D80041F080511164126C02F080520192019A2C
:1005E80002931A4A116841F440411160126802F4FA
:1005F80040420292029A0222089201210B91102194
:100608000C910E920F930823109364231193129266
:100618000423139308A800F0CFFA88B90F23039393
:1006280002230493002305934FF480520692079304
:10063800032103A800F00EFD20B915B05DF804FBF6
:10064800FFF79AFFFFF798FF00380240007000405C
:1006580000B585B000F022F9FFF7AAFFFFF73AFFCF
:10066800FFF78CFF274D00220821284600F094FA56
:1006780001220221284600F08FFAC0238DF80830A5
:1006880000248DF8094004238DF80A308DF80B40BA
:100698008DF80C4017268DF80D6061238DF80E300B
:1006A8004FF4FA73072202A9174800F0A4FE224665
:1006B8000821284600F070FA22460221284600F058
:1006C8006BFAFF238DF800308DF801308DF8026049
:1006D800AA238DF80330BB238DF80430CC238DF882
:1006E80005302021074800F05DFA4FF4FA7000F059
:1006F80001F94FF47A7306226946034800F07BFE3D
:10070800EFE700BF000C02405804002082B000212F
:1007180000910B4B5A6C42F480425A645A6C02F4B2
:1007280080420092009A01911A6C42F080521A6439
:100738001B6C03F080530193019B02B0704700BF0C
:1007480000380240F0B589B0002303930493059361
:1007580006930793026803F1804303F588339A42AE
:1007680001D009B0F0BD0024009403F594335A6C0D
:1007780042F010025A645A6C02F010020092009A79
:1007880001941A6B42F001021A631A6B02F001021B
:100798000192019A02941A6B42F002021A631B6BCF
:1007A80003F002030293029B4FF4004303930227D2
:1007B8000497032606960725079503A9064800F01F
:1007C8000BF980230393049705940696079503A9CC
:1007D800024800F001F9C4E70000024000040240AA
:1007E800FEE7FEE7FEE7FEE7FEE770477047704763
:1007F80008B500F06DF808BD70470000DFF834D088
:100808000D480E490E4A002302E0D458C450043360
:10081800C4188C42F9D30B4A0B4C002301E0136037
:100828000432A242FBD3FFF7E7FF00F051FEFFF7C7
:100838000FFF704700000220000000203C04002049
:10084800EC1600083C040020A4040020FEE7000089
:1008580010B504460E4B18784FF47A73B3FBF0F3D7
:100868000C4A1068B0FBF3F000F0A2F868B90F2C3E
:1008780001D901200AE0002221464FF0FF3000F0A4
:100888005FF8054B1C60002000E0012010BD00BF90
:1008980004000020000000200800002008B50B4BD1
:1008A8001A6842F400721A601A6842F480621A6088
:1008B8001A6842F480721A60032000F02FF80F20A3
:1008C800FFF7C6FFFFF722FF002008BD003C0240EB
:1008D800034A1168034B1B780B441360704700BF31
:1008E8009C04002004000020014B1868704700BFDA
:1008F8009C04002038B50446FFF7F6FF0546B4F11E
:10090800FF3F02D0044B1B781C44FFF7EDFF401B50
:10091800A042FAD338BD00BF04000020074AD368BC
:1009280023F4E0631B041B0C000200F4E0600343A3
:1009380043F0BF6343F40033D360704700ED00E039
:1009480000B5194BDB68C3F30223C3F1070CBCF1F4
:10095800040F28BF4FF0040C03F1040EBEF1060F7C
:1009680018D9033B4FF0FF3E0EFA0CFC21EA0C01AC
:1009780099400EFA03F322EA0303194300280BDB1C
:100988000901C9B200F1604000F5614080F8001328
:100998005DF804FB0023E5E700F00F000901C9B288
:1009A800024B1954F4E700BF00ED00E014ED00E03D
:1009B8000138B0F1807F0BD24FF0E0235861054A2F
:1009C800F02182F823100020986107221A617047ED
:1009D8000120704700ED00E000230F2B00F2D280C9
:1009E80070B582B060E085685E000324B44025EAF3
:1009F8000405CC68B4402C438460456825EA0205A8
:100A08004C68C4F300129A402A4342605AE0DC085A
:100A1800083450F8246003F0070295000F22AA401A
:100A280026EA020E0A69AA4042EA0E0240F8242089
:100A38005CE0042200E0002202FA0EF22A430234AB
:100A4800514D45F82420514A94686FEA0C0224EA73
:100A58000C054E6816F4801F01D04CEA04054B4C77
:100A6800A560E46802EA04054E6816F4001F01D088
:100A78004CEA0405454CE560646802EA04054E68E2
:100A880016F4003F01D04CEA0405404C6560246828
:100A980022404D6815F4803F01D04CEA04023B4CDB
:100AA800226001330F2B6BD801229A400C6804EAAC
:100AB800020C32EA0404F4D14C6804F00304013C4B
:100AC800012C90D94A6802F00302032A09D0C468AD
:100AD8005D000322AA4024EA02048A68AA4022434D
:100AE800C2604A6802F00302022A90D004684FEA02
:100AF800430E032202FA0EF224EA02044A6802F0C4
:100B0800030202FA0EF2224302604A6812F4403FDE
:100B1800C7D0002201921E4A546C44F480445464A5
:100B2800526C02F480420192019A9C08A51C164A54
:100B380052F8255003F003024FEA820E0F2202FA00
:100B48000EF225EA0205134A90423FF474AF02F50B
:100B5800806290420ED002F5806290420CD002F57D
:100B6800806290420AD002F5806290423FF461AF01
:100B7800072261E701225FE702225DE703225BE7C4
:100B880002B070BD704700BF00380140003C014012
:100B980000380240000002400AB181617047090430
:100BA80081617047436901EA030221EA030141EACE
:100BB8000241816170470000002800F0E08170B5B3
:100BC80082B00446036813F0010F3BD09F4B9B682B
:100BD80003F00C03042B2CD09C4B9B6803F00C03F4
:100BE800082B21D06368B3F5803F4FD0B3F5A02F11
:100BF80052D0964B1A6822F480321A601A6822F48E
:100C080080221A606368002B50D0FFF76DFE0546FE
:100C18008E4B1B6813F4003F14D1FFF765FE401B91
:100C28006428F5D90320B1E1884B5B6813F4800F81
:100C3800D8D0864B1B6813F4003F03D06368002BA1
:100C480000F09F81236813F0020F54D07F4B9B68FC
:100C580013F00C0F3ED07D4B9B6803F00C03082B60
:100C680033D0E368002B68D0794B01221A60FFF774
:100C78003BFE0546754B1B6813F0020F54D1FFF776
:100C880033FE401B0228F5D903207FE16F4A136821
:100C980043F480331360B5E76C4B1A6842F4802242
:100CA8001A601A6842F480321A60ABE7FFF71CFE3C
:100CB8000546664B1B6813F4003FC3D0FFF714FECC
:100CC800401B6428F5D9032060E1604B5B6813F48E
:100CD800800FC6D15D4B1B6813F0020F03D0E36889
:100CE800012B40F05081594A136823F0F803216919
:100CF80043EAC1031360236813F0080F42D0636905
:100D08006BB3534B0122C3F8802EFFF7EDFD054668
:100D18004E4B5B6F13F0020F34D1FFF7E5FD401B1C
:100D28000228F5D9032031E1484A136823F0F80373
:100D3800216943EAC1031360DDE7454B00221A60CD
:100D4800FFF7D2FD0546414B1B6813F0020FD2D0C6
:100D5800FFF7CAFD401B0228F5D9032016E13C4BDA
:100D68000022C3F8802EFFF7BFFD0546374B5B6FA7
:100D780013F0020F06D0FFF7B7FD401B0228F5D984
:100D8800032003E1236813F0040F77D02F4B1B6C6B
:100D980013F0805F33D1002301932C4B1A6C42F07F
:100DA80080521A641B6C03F080530193019B012548
:100DB800284B1B6813F4807F23D0A368012B34D001
:100DC800052B38D0214B1A6F22F001021A671A6FCF
:100DD80022F004021A67A368002B3DD0FFF784FDB8
:100DE80006461A4B1B6F13F0020F46D1FFF77CFD26
:100DF800801B41F288339842F3D90320C6E00025CE
:100E0800D6E7144A136843F480731360FFF76CFD48
:100E18000646104B1B6813F4807FCED1FFF764FDA4
:100E2800801B0228F5D90320B0E0084A136F43F06D
:100E380001031367CFE7054B1A6F42F004021A67E4
:100E48001A6F42F001021A67C5E700BF0038024076
:100E58000000474200700040FFF746FD0646524B2F
:100E68001B6F13F0020F08D0FFF73EFD801B41F205
:100E780088339842F3D9032088E0EDB9A369002BA1
:100E880000F08380484A926802F00C02082A51D088
:100E9800022B17D0454B00221A66FFF725FD0446A2
:100EA800414B1B6813F0007F42D0FFF71DFD001B6C
:100EB8000228F5D9032069E03B4A136C23F08053DC
:100EC8001364DBE7394B00221A66FFF70DFD054670
:100ED800354B1B6813F0007F06D0FFF705FD401B5C
:100EE8000228F5D9032051E0E369226A1343626AB4
:100EF80043EA8213A26A5208013A43EA0243E26AC9
:100F080043EA0263284A5360284B01221A66FFF716
:100F1800EBFC0446244B1B6813F0007F06D1FFF757
:100F2800E3FC001B0228F5D903202FE000202DE068
:100F380000202BE0012B2BD01B4B5B6803F48001B6
:100F4800E269914226D103F03F02216A8A4223D105
:100F5800616A47F6C0721A40B2EB811F1ED103F4D2
:100F68004031A26A5208013AB1EB024F18D103F09E
:100F78007063E26AB3EB026F14D1002006E001202F
:100F88007047012002E0012000E0002002B070BD9F
:100F98000120FBE70120F9E70120F7E70120F5E749
:100FA8000120F3E70120F1E7003802400000474242
:100FB80008B5254B9B6803F00C03042B3FD0082B86
:100FC8003FD1214B5A6802F03F025B6813F4800F4F
:100FD80012D01D4B5968C1F388111C480023A1FB8E
:100FE8000001FFF7F5F8184B5B68C3F301430133C1
:100FF8005B00B0FBF3F025E0134B5968C1F3881C84
:101008004FEA4C11B1EB0C006EEB0E0E4FEA8E134B
:1010180043EA90638101091A63EB0E03DB0043EA9C
:101028005173C90011EB0C0C43F100039902002322
:101038004FEA8C2041EA9C51FFF7CAF8D3E70348EE
:1010480000E0034808BD00BF0038024040787D0139
:101058000024F400002800F09B8070B50D4604467B
:101068004F4B1B6803F007038B4208D2CBB24C4AA4
:101078001370136803F007038B4240F08B802368DA
:1010880013F0020F17D013F0040F04D0454A9368E9
:1010980043F4E0539360236813F0080F04D0414AE7
:1010A800936843F4604393603E4A936823F0F003E7
:1010B800A1680B439360236813F0010F32D0636873
:1010C800012B21D09A1E012A25D9364A126812F01E
:1010D800020F61D033498A6822F0030213438B6000
:1010E800FFF702FC06462F4B9B6803F00C0362686F
:1010F800B3EB820F16D0FFF7F7FB801B41F2883362
:101108009842F0D9032042E0264A126812F4003FC0
:10111800E0D101203BE0234A126812F0007FD9D1C8
:10112800012034E01E4B1B6803F00703AB4207D9CC
:10113800EAB21B4B1A701B6803F00703AB422DD1B0
:10114800236813F0040F06D0164A936823F4E0537B
:10115800E1680B439360236813F0080F07D0114A26
:10116800936823F46043216943EAC1039360FFF75E
:101178001FFF0C4B9B68C3F303130B4AD35CD84087
:101188000A4B18600A4B1868FFF762FB002070BD15
:10119800012070470120FAE70120F8E70120F6E76F
:1011A800003C024000380240BC1600080000002045
:1011B80008000020014B1868704700BF000000209D
:1011C80008B5FFF7F7FF044B9B68C3F38223034A74
:1011D800D35CD84008BD00BF00380240CC160008D8
:1011E80008B5FFF7E7FF044B9B68C3F34233034A94
:1011F800D35CD84008BD00BF00380240CC160008B8
:1012080038B504460268136923F44053C1680B4398
:10121800136183680269134342691343C2691A431D
:101228000168CB6823F4164323F00C031343CB6007
:101238000268536923F4407381690B43536103685F
:10124800314A934206D002F58062934202D0FFF7FA
:10125800B7FF01E0FFF7C4FFE369B3F5004F29D0FA
:101268000021031849411B1841F10001C90041EA56
:101278005371DB00181863684FEA83024FEA9373CF
:1012880041F10001FEF7A4FF204DA5FB00325109F2
:10129800642303FB11031B013233A5FB03235B0902
:1012A80003F0F00202EB011203F00F03216813446C
:1012B8008B6038BD0023021843EB0301121841F17B
:1012C8000001C90041EA5271D200101841F1000131
:1012D800626892185B41FEF77BFF0C4DA5FB00325C
:1012E8005109642303FB1103DB003233A5FB0323FD
:1012F8005B095A0002F4F87202EB011203F00703CB
:10130800216813448B60D4E7001001401F85EB511E
:101318002DE9F84305460F4616469946DDF8208024
:101328002C68246837EA04030CBF4FF0010C4FF017
:10133800000CB4452DD1B8F1FF3FF1D0B8F1000F42
:1013480005D0FFF7D1FAA0EB09004045E8D92A6893
:1013580002F10C0353E8003F23F4D0730C3242E847
:1013680000310029F3D12A6802F1140353E8003F41
:1013780023F00103143242E800310029F3D120237D
:1013880085F83D3085F83E30002385F83C30032051
:1013980000E00020BDE8F88358B310B5044690F883
:1013A8003D300BB3242384F83D302268D36823F4FE
:1013B8000053D3602046FFF723FF2268136923F404
:1013C800904313612268536923F02A03536122680A
:1013D800D36843F40053D36000202064202384F8AA
:1013E8003D3084F83E3010BD80F83C30FFF7AAF954
:1013F800D8E7012070472DE9F04182B01E4690F8E9
:101408003D30DBB2202B54D104460D4690460029CE
:1014180053D0002A53D090F83C30012B51D00123EF
:1014280080F83C3000230364212380F83D30FFF727
:101438005BFA0746A4F82480A4F82680A368B3F5CD
:10144800805F05D04FF00008002384F83C3012E09C
:10145800236913B14FF00008F6E7A8460025F3E723
:1014680038F8023B2268C3F308035360E28C92B257
:10147800013A92B2E284E38C9BB273B100963B4688
:10148800002280212046FFF743FFE0B9002DE7D076
:1014980015F8012B23685A60E8E700963B460022BE
:1014A80040212046FFF734FF78B9202384F83D30E7
:1014B80000E0022002B0BDE8F0810120FAE7012037
:1014C800F8E70220F6E70320F4E70320F2E700003C
:1014D80070B50D4E0D4D761BB61006D0002455F88C
:1014E800043B01349847A642F9D1094E094D761BB1
:1014F80000F0D4F8B61006D0002455F8043B0134A7
:101508009847A642F9D170BDE0160008E016000819
:10151800E8160008E0160008830730B548D0541EC6
:10152800002A3FD0CAB2034601E0013C3AD303F88F
:10153800012B9D07F9D1032C2DD9CDB245EA0525FC
:101548000F2C45EA054536D9A4F1100222F00F0CFC
:1015580003F1200EE6444FEA121C03F1100242E99F
:10156800045542E9025510327245F8D10CF10102D6
:1015780014F00C0F03EB021204F00F0C13D0ACF1B3
:10158800040323F003030433134442F8045B934237
:10159800FBD10CF003042CB1CAB21C4403F8012B94
:1015A8009C42FBD130BD64461346002CF4D1F9E7C8
:1015B80003461446BFE71A46A446E0E7024B13B1B8
:1015C800024800F005B8704700000000E515000863
:1015D800002301461A46184600F01AB838B5084BD9
:1015E800084D5B1B9C1007D0043B1D44013C55F87B
:1015F80004399847002CF9D1BDE8384000F054B8B8
:10160800EC160008E8160008704700BF704700BFD6
:101618002DE9F047DFF87CA00646DAF80000984686
:101628000F469146FFF7F0FF1B4B1B68D3F8484164
:1016380024B365681F2D26DC5EB96B1C0235DAF809
:101648000000636044F82570FFF7E0FF0020BDE864
:10165800F08704EB85010123C1F88890D4F888212C
:10166800AB401A43022EC4F88821C1F80881E4D19E
:10167800D4F88C211343C4F88C31DEE703F5A67443
:10168800C3F84841D5E7DAF80000FFF7BFFF4FF08D
:10169800FF30DCE738040020D4160008F8B500BF96
:1016A800F8BC08BC9E467047F8B500BFF8BC08BC3B
:0416B8009E46704793
:1016BC0000000000000000000102030406070809F6
:0C16CC00000000000102030410000020D8
:0816D80030EBFF7F0100000070
:0816E000C5150008BD0100085A
:0416E800990100085C
:1016EC000024F400010000001000000000000000C5
:1016FC0000000000FC02002064030020CC0300204A
:10170C0000000000000000000000000000000000CD
:10171C0000000000000000000000000000000000BD
:10172C0000000000000000000000000000000000AD
:10173C00000000000000000000000000000000009D
:10174C00000000000000000000000000000000008D
:10175C00000000000000000000000000000000007D
:10176C00000000000000000000000000000000006D
:10177C00000000000000000000000000000000005D
:10178C00000000000000000000000000000000004D
:10179C00000000000000000001000000000000003C
:1017AC000E33CDAB34126DE6ECDE05000B00000001
:1017BC00000000000000000000000000000000001D
:1017CC00000000000000000000000000000000000D
:1017DC0000000000000000000000000000000000FD
:1017EC0000000000000000000000000000000000ED
:0C1B1C000000000000000000A0040020F9
:0400000508000805E2
:00000001FF
