:020000040800F2
:1000000000000220190A0008FD090008FF09000885
:10001000010A0008030A0008050A000800000000A1
:10002000000000000000000000000000070A0008B7
:10003000090A0008000000000B0A00080D0A000869
:10004000690A0008690A0008690A0008690A0008C4
:10005000690A0008690A0008690A0008690A0008B4
:10006000690A0008690A0008690A0008690A0008A4
:10007000690A0008690A0008690A0008690A000894
:10008000690A0008690A0008690A000800000000FF
:10009000000000000000000000000000690A0008E5
:1000A000690A0008690A0008690A0008690A000864
:1000B000690A0008690A0008690A0008690A000854
:1000C000690A0008690A0008690A0008690A000844
:1000D000690A0008690A0008690A000800000000AF
:1000E000690A0008690A0008690A0008000000009F
:1000F000000000000000000000000000690A000885
:1001000000000000690A0008690A0008690A00087E
:1001100000000000000000000000000000000000DF
:10012000690A0008690A0008690A0008690A0008E3
:10013000690A000800000000000000000000000044
:10014000000000000000000000000000690A000834
:10015000690A0008690A0008690A0008690A0008B3
:10016000690A0008690A0008000000000000000099
:10017000000000000000000000000000000000007F
:1001800000000000690A00080000000000000000F4
:08019000690A0008690A000871
:1001980010B5054C237833B9044B13B10448AFF3B9
:1001A80000800123237010BD3C04002000000000E3
:1001B8000C43000808B5034B1BB103490348AFF3D0
:1001C800008008BD00000000400400200C43000827
:1001D80053B94AB9002908BF00281CBF4FF0FF31A6
:1001E8004FF0FF3000F074B9ADF1080C6DE904CEA2
:1001F80000F006F8DDF804E0DDE9022304B07047FA
:100208002DE9F047089E0D4604468846002B4DD13F
:100218008A42944668D9B2FA82F252B101FA02F3DC
:10022800C2F1200120FA01F10CFA02FC41EA0308AC
:1002380094404FEA1C45210CB8FBF5FE1FFA8CF7D9
:1002480005FB1E8341EA03430EFB07F199420BD9D4
:100258001CEB03030EF1FF3080F01E81994240F23F
:100268001B81AEF1020E63445B1AA4B2B3FBF5F036
:1002780005FB103344EA034400FB07F7A7420AD9F9
:100288001CEB040400F1FF3380F00881A74240F220
:10029800058164440238E41B40EA0E4000211EB187
:1002A800D4400023C6E90043BDE8F0878B4208D953
:1002B800002E00F0EE800021C6E900050846BDE8E2
:1002C800F087B3FA83F100294AD1AB4202D38242C4
:1002D80000F2F980841A65EB030301209846002E8A
:1002E800E2D0C6E90048DFE702B9FFDEB2FA82F2DF
:1002F800002A40F09180A1EB0C054FEA1C471FFA39
:100308008CFE0121B5FBF7F307FB1350250C45EADA
:1003180000450EFB03F0A84208D91CEB050503F1C4
:10032800FF3802D2A84200F2CB8043462D1AA4B26D
:10033800B5FBF7F007FB105544EA05440EFB00FE39
:10034800A64508D91CEB040400F1FF3502D2A645E6
:1003580000F2BB802846A4EB0E0440EA03409EE767
:10036800C1F120078B4022FA07FC4CEA030C20FA63
:1003780007F405FA01F31C43FD404FEA1C4900FA53
:1003880001F3B5FBF9F8200C1FFA8CFE09FB185590
:1003980040EA054508FB0EF0A84202FA01F20BD923
:1003A8001CEB050508F1FF3A80F08880A84240F26E
:1003B8008580A8F1020865442D1AA4B2B5FBF9F0AE
:1003C80009FB105544EA054500FB0EFEAE4508D969
:1003D8001CEB050500F1FF346CD2AE456AD9023832
:1003E800654440EA0840A0FB0294A5EB0E05A5422F
:1003F800C846A64656D353D05EB1B3EB080265EBA8
:100408000E0505FA07F722FA01F3CD401F43C6E9A6
:1004180000750021BDE8F087C2F1200320FA03F13E
:100428000CFA02FC25FA03F395400D434FEA1C47EA
:100438001FFA8CFEB3FBF7F107FB11302B0C43EAD4
:10044800004301FB0EF0984204FA02F408D91CEBB1
:10045800030301F1FF382FD298422DD902396344A2
:100468001B1AADB2B3FBF7F007FB103345EA03459F
:1004780000FB0EF3AB4208D91CEB050500F1FF3871
:1004880016D2AB4214D902386544ED1A40EA01414C
:1004980038E73146304607E78646E5E61846FAE685
:1004A8004B45A9D2B9EB020864EB0C0E0138A3E75F
:1004B8004046EAE7204694E74146D1E7D0467BE745
:1004C800023B654432E7084609E76444023842E7DC
:1004D800704700BF054B064A1A6000225A609A60AE
:1004E800DA601A615A619A61704700BFBC24002023
:1004F800002C0140F0B58BB00024059406940794B5
:100508000894099400942A4B1A6B42F004021A6367
:100518001A6B02F004020092009A01941A6B42F0DE
:1005280080021A631A6B02F080020192019A029407
:100538001A6B42F002021A631A6B02F0020202926C
:10054800029A03941A6B42F008021A631A6B02F0BB
:1005580008020392039A04941A6B42F001021A6388
:100568001B6B03F001030493049B124F22460121E5
:10057800384600F01BFC104E224647F22A0130464E
:1005880000F014FC0125059506950794089405A923
:10059800384600F02BFB47F22A030593069507948B
:1005A800089405A9304600F021FB0BB0F0BD00BF50
:1005B8000038024000040240000C024008B572B640
:1005C80001224FF40051064800F0F0FB01210548D4
:1005D80000F0F2FB4FF4FA7000F096FAF0E700BF73
:1005E800000C02400004024008B50A480A4B0360A8
:1005F8004FF41653436000238360C36003610C22E9
:1006080042618361C36101F08BFD00B908BDFFF74A
:10061800D5FF00BF402500200010014000B595B06F
:100628003022002108A803F0ABFD002303930493B4
:1006380005930693079301931E4A116C41F080516C
:100648001164126C02F080520192019A02931A4AC4
:10065800116841F440411160126802F4404202926C
:10066800029A0222089201210B9110210C910E92FC
:100678000F93082310936423119312920523139365
:1006880008A800F0A3FB88B90F230393022304935F
:10069800002305934FF4805206920793032103A881
:1006A80000F0E2FD20B915B05DF804FBFFF786FF06
:1006B800FFF784FF003802400070004070B590B02A
:1006C80000F0F6F9FFF7AAFFFFF714FFFFF78CFF1A
:1006D800FFF700FF02F040F9574C0022082120469E
:1006E80000F064FB01220221204600F05FFBC023DA
:1006F8008DF8383000258DF8395005238DF83A30BB
:100708008DF83B508DF83C508DF83D5061238DF8A5
:100718003E3017268DF83F604FF4FA7308220EA971
:10072800464801F02CFD2A460821204600F03EFBF1
:100738002A460221204600F039FB8DF830508DF80A
:1007480031508DF83260AA238DF83330BB238DF8F1
:100758003430CC238DF835300DF1040C384C0FCCE7
:10076800ACE80F000FCCACE80F0094E803004CF89D
:10077800040BACF800102A463249334803F0FAF962
:1007880008B1FFF71BFF2C4C01224FF48041204693
:1007980000F00CFB4FF47A7000F0B6F900224FF429
:1007A8008041204600F002FB642000F0ADF90A22E7
:1007B8002649274803F00CFA08B1FFF7FFFE1E4C44
:1007C80001224FF48041204600F0F0FA4FF47A708D
:1007D80000F09AF900224FF48041204600F0E6FA32
:1007E800642000F091F90BAB262201A9184803F008
:1007F80009FB0B9B03B108B1FFF7E0FE0E4C012289
:100808004FF48041204600F0D1FA4FF47A7000F09E
:100818007BF900224FF48041204600F0C7FA64209B
:1008280000F072F90A4803F041FC01224FF48051AC
:10083800014800F0BBFAF8E7000C02404025002010
:10084800304300088825002088140020244300082D
:100858005804002082B0002100910B4B5A6C42F4DE
:1008680080425A645A6C02F480420092009A0191C4
:100878001A6C42F080521A641B6C03F08053019387
:10088800019B02B0704700BF00380240F0B58BB042
:1008980000230593069307930893099302682A4B4C
:1008A8009A4201D00BB0F0BD0022019203F58633C5
:1008B800596C41F400615964596C01F4006101916B
:1008C80001990292196B41F002011963196B01F049
:1008D8000201029102990392196B41F00401196314
:1008E800196B01F004010391039904921A6B42F009
:1008F80008021A631B6B03F008030493049B4FF46C
:100908000043059302260696032508950C240994AE
:1009180005A90E4800F06AF94FF47063059306962E
:10092800012707970895099405A9094800F05EF979
:1009380004230593069607970895099405A9054881
:1009480000F054F9AEE700BF002C0140000402405B
:1009580000080240000C0240F0B589B00023039360
:100968000493059306930793026803F1804303F504
:1009780088339A4201D009B0F0BD0024009403F5F1
:1009880094335A6C42F010025A645A6C02F0100206
:100998000092009A01941A6B42F001021A631A6BD2
:1009A80002F001020192019A02941A6B42F00202CB
:1009B8001A631B6B03F002030293029B4FF400437C
:1009C800039302270497032606960725079503A98C
:1009D800064800F00BF980230393049705940696C4
:1009E800079503A9024800F001F9C4E70000024096
:1009F80000040240FEE7FEE7FEE7FEE7FEE7704779
:100A08007047704708B500F06DF808BD70470000E2
:100A1800DFF834D00D480E490E4A002302E0D458BE
:100A2800C4500433C4188C42F9D30B4A0B4C00232E
:100A380001E013600432A242FBD3FFF7E7FF03F0A3
:100A48007BFBFFF73BFE7047000002200000002000
:100A58003C0400202C4400083C040020C825002049
:100A6800FEE7000010B504460E4B18784FF47A7371
:100A7800B3FBF0F30C4A1068B0FBF3F000F0A2F8F7
:100A880068B90F2C01D901200AE0002221464FF055
:100A9800FF3000F05FF8054B1C60002000E00120EB
:100AA80010BD00BF04000020000000200800002046
:100AB80008B50B4B1A6842F400721A601A6842F4BF
:100AC80080621A601A6842F480721A60032000F08B
:100AD8002FF80F20FFF7C6FFFFF7BCFE002008BD68
:100AE800003C0240034A1168034B1B780B44136017
:100AF800704700BF8425002004000020014B1868BF
:100B0800704700BF8425002038B50446FFF7F6FF7C
:100B18000546B4F1FF3F02D0044B1B781C44FFF795
:100B2800EDFF401BA042FAD338BD00BF04000020EF
:100B3800074AD36823F4E0631B041B0C000200F48B
:100B4800E060034343F0BF6343F40033D36070476E
:100B580000ED00E000B5194BDB68C3F30223C3F1D5
:100B6800070CBCF1040F28BF4FF0040C03F1040E6E
:100B7800BEF1060F18D9033B4FF0FF3E0EFA0CFCEE
:100B880021EA0C0199400EFA03F322EA0303194300
:100B980000280BDB0901C9B200F1604000F5614093
:100BA80080F800135DF804FB0023E5E700F00F0070
:100BB8000901C9B2024B1954F4E700BF00ED00E087
:100BC80014ED00E00138B0F1807F0BD24FF0E02344
:100BD8005861054AF02182F8231000209861072205
:100BE8001A6170470120704700ED00E000230F2BC9
:100BF80000F2D28070B582B060E085685E000324A0
:100C0800B44025EA0405CC68B4402C4384604568A8
:100C180025EA02054C68C4F300129A402A43426050
:100C28005AE0DC08083450F8246003F00702950005
:100C38000F22AA4026EA020E0A69AA4042EA0E02D8
:100C480040F824205CE0042200E0002202FA0EF2C0
:100C58002A430234514D45F82420514A94686FEADA
:100C68000C0224EA0C054E6816F4801F01D04CEAE9
:100C780004054B4CA560E46802EA04054E6816F4C6
:100C8800001F01D04CEA0405454CE560646802EA9F
:100C980004054E6816F4003F01D04CEA0405404CA8
:100CA8006560246822404D6815F4803F01D04CEA05
:100CB80004023B4C226001330F2B6BD801229A406F
:100CC8000C6804EA020C32EA0404F4D14C6804F01B
:100CD8000304013C012C90D94A6802F00302032A5C
:100CE80009D0C4685D000322AA4024EA02048A6885
:100CF800AA402243C2604A6802F00302022A90D046
:100D080004684FEA430E032202FA0EF224EA0204B0
:100D18004A6802F0030202FA0EF2224302604A68AD
:100D280012F4403FC7D0002201921E4A546C44F48A
:100D380080445464526C02F480420192019A9C08E7
:100D4800A51C164A52F8255003F003024FEA820EFA
:100D58000F2202FA0EF225EA0205134A90423FF4E6
:100D680074AF02F5806290420ED002F58062904224
:100D78000CD002F5806290420AD002F5806290425F
:100D88003FF461AF072261E701225FE702225DE7D6
:100D980003225BE702B070BD704700BF0038014016
:100DA800003C014000380240000002400AB1816165
:100DB8007047090481617047436901EA030221EA27
:100DC800030141EA0241816170470000002800F0F8
:100DD800E08170B582B00446036813F0010F3BD080
:100DE8009F4B9B6803F00C03042B2CD09C4B9B68F7
:100DF80003F00C03082B21D06368B3F5803F4FD074
:100E0800B3F5A02F52D0964B1A6822F480321A609C
:100E18001A6822F480221A606368002B50D0FFF70A
:100E28006DFE05468E4B1B6813F4003F14D1FFF787
:100E380065FE401B6428F5D90320B1E1884B5B6847
:100E480013F4800FD8D0864B1B6813F4003F03D0EF
:100E58006368002B00F09F81236813F0020F54D0C1
:100E68007F4B9B6813F00C0F3ED07D4B9B6803F0C3
:100E78000C03082B33D0E368002B68D0794B012290
:100E88001A60FFF73BFE0546754B1B6813F0020F0F
:100E980054D1FFF733FE401B0228F5D903207FE128
:100EA8006F4A136843F480331360B5E76C4B1A68D4
:100EB80042F480221A601A6842F480321A60ABE762
:100EC800FFF71CFE0546664B1B6813F4003FC3D0B2
:100ED800FFF714FE401B6428F5D9032060E1604B3E
:100EE8005B6813F4800FC6D15D4B1B6813F0020FCB
:100EF80003D0E368012B40F05081594A136823F06E
:100F0800F803216943EAC1031360236813F0080F4B
:100F180042D063696BB3534B0122C3F8802EFFF7AD
:100F2800EDFD05464E4B5B6F13F0020F34D1FFF712
:100F3800E5FD401B0228F5D9032031E1484A136832
:100F480023F0F803216943EAC1031360DDE7454B49
:100F580000221A60FFF7D2FD0546414B1B6813F0CB
:100F6800020FD2D0FFF7CAFD401B0228F5D9032093
:100F780016E13C4B0022C3F8802EFFF7BFFD054663
:100F8800374B5B6F13F0020F06D0FFF7B7FD401B1E
:100F98000228F5D9032003E1236813F0040F77D062
:100FA8002F4B1B6C13F0805F33D1002301932C4B24
:100FB8001A6C42F080521A641B6C03F08053019340
:100FC800019B0125284B1B6813F4807F23D0A3685D
:100FD800012B34D0052B38D0214B1A6F22F0010297
:100FE8001A671A6F22F004021A67A368002B3DD013
:100FF800FFF784FD06461A4B1B6F13F0020F46D10C
:10100800FFF77CFD801B41F288339842F3D9032017
:10101800C6E00025D6E7144A136843F480731360CA
:10102800FFF76CFD0646104B1B6813F4807FCED18A
:10103800FFF764FD801B0228F5D90320B0E0084AB9
:10104800136F43F001031367CFE7054B1A6F42F0A4
:1010580004021A671A6F42F001021A67C5E700BF57
:10106800003802400000474200700040FFF746FD8C
:101078000646524B1B6F13F0020F08D0FFF73EFDD8
:10108800801B41F288339842F3D9032088E0EDB9F8
:10109800A369002B00F08380484A926802F00C0292
:1010A800082A51D0022B17D0454B00221A66FFF7A9
:1010B80025FD0446414B1B6813F0007F42D0FFF723
:1010C8001DFD001B0228F5D9032069E03B4A136C7B
:1010D80023F080531364DBE7394B00221A66FFF7CD
:1010E8000DFD0546354B1B6813F0007F06D0FFF752
:1010F80005FD401B0228F5D9032051E0E369226A67
:101108001343626A43EA8213A26A5208013A43EA25
:101118000243E26A43EA0263284A5360284B0122E9
:101128001A66FFF7EBFC0446244B1B6813F0007F9C
:1011380006D1FFF7E3FC001B0228F5D903202FE0B6
:1011480000202DE000202BE0012B2BD01B4B5B68EF
:1011580003F48001E269914226D103F03F02216A3B
:101168008A4223D1616A47F6C0721A40B2EB811FE6
:101178001ED103F44031A26A5208013AB1EB024F82
:1011880018D103F07063E26AB3EB026F14D1002048
:1011980006E001207047012002E0012000E0002065
:1011A80002B070BD0120FBE70120F9E70120F7E755
:1011B8000120F5E70120F3E70120F1E700380240BC
:1011C8000000474208B5254B9B6803F00C03042B2D
:1011D8003FD0082B3FD1214B5A6802F03F025B6891
:1011E80013F4800F12D01D4B5968C1F388111C48A5
:1011F8000023A1FB0001FEF7EBFF184B5B68C3F36C
:10120800014301335B00B0FBF3F025E0134B596851
:10121800C1F3881C4FEA4C11B1EB0C006EEB0E0EBB
:101228004FEA8E1343EA90638101091A63EB0E03B8
:10123800DB0043EA5173C90011EB0C0C43F10003C6
:10124800990200234FEA8C2041EA9C51FEF7C0FF27
:10125800D3E7034800E0034808BD00BF0038024058
:1012680040787D010024F400002800F09B8070B5D0
:101278000D4604464F4B1B6803F007038B4208D208
:10128800CBB24C4A1370136803F007038B4240F04B
:101298008B80236813F0020F17D013F0040F04D0CB
:1012A800454A936843F4E0539360236813F0080FAA
:1012B80004D0414A936843F4604393603E4A93687C
:1012C80023F0F003A1680B439360236813F0010F28
:1012D80032D06368012B21D09A1E012A25D9364ABB
:1012E800126812F0020F61D033498A6822F00302B3
:1012F80013438B60FFF702FC06462F4B9B6803F0F5
:101308000C036268B3EB820F16D0FFF7F7FB801B64
:1013180041F288339842F0D9032042E0264A126805
:1013280012F4003FE0D101203BE0234A126812F09A
:10133800007FD9D1012034E01E4B1B6803F007035E
:10134800AB4207D9EAB21B4B1A701B6803F00703BC
:10135800AB422DD1236813F0040F06D0164A9368C8
:1013680023F4E053E1680B439360236813F0080FFC
:1013780007D0114A936823F46043216943EAC10303
:101388009360FFF71FFF0C4B9B68C3F303130B4AD3
:10139800D35CD8400A4B18600A4B1868FFF762FB09
:1013A800002070BD012070470120FAE70120F8E70E
:1013B8000120F6E7003C024000380240584300088C
:1013C8000000002008000020014B1868704700BF8B
:1013D8000000002008B5FFF7F7FF044B9B68C3F334
:1013E8008223034AD35CD84008BD00BF00380240BE
:1013F8006843000808B5FFF7E7FF044B9B68C3F391
:101408004233034AD35CD84008BD00BF00380240CD
:101418006843000870B582B0044600230193006851
:1014280000F089FF054610B1284602B070BD20685B
:1014380001F07AFA38B90123A364A36C012B0BD00D
:101448002E46284614E00023A364206800F073FFAA
:101458000028F2D00546E7E70021206801F0D2F81D
:101468000028EDD04FF08055DEE7019B0133019352
:10147800019A4FF6FE739A4213D896B90021206854
:1014880001F0C0F8E0B91249206801F099F9064660
:10149800C0B90021206800F039FFC30FE5D01E460F
:1014A800E3E7019A4FF6FE739A420ED810F0804394
:1014B80002D001236364B7E7002262641D46B3E7E4
:1014C8000546B1E74FF08055AEE74FF08075ABE7C2
:1014D800000010C1F0B589B004460F46FFF70EFBB7
:1014E80006460023009301930821206800F0E0FFDE
:1014F800054610B1284609B0F0BD216D09042068E1
:1015080001F080F805460028F4D14FF0FF3302932C
:10151800082303933023049302230593002306939F
:101528000123079302A9206800F0F3FE206801F068
:1015380099F8054658B1DDE700F0C3FE4DF82500DF
:101548000135FFF7DBFA831BB3F1FF3F3FD020687B
:10155800436B13F02A0F07D1436B13F4001FEBD131
:10156800436B13F4005FECD1436B13F0080F25D1E4
:10157800436B13F0020F24D1456B15F0200523D1DE
:1015880040F23A538363019A130203F47F0343EA58
:101598000263110A01F47F410B4343EA12633B6083
:1015A800009A130203F47F0343EA0263110A01F469
:1015B8007F410B4343EA12637B609BE70825856301
:1015C80098E70225856395E72025856392E74FF024
:1015D80000458FE710B582B00446002100910191C3
:1015E800006800F093FE10F0007F13D16946204692
:1015F800FFF770FF80B9019B13F4802F0ED0216D87
:101608000904206800F0FEFF30B90221206801F0CB
:1016180011F801E04FF4006002B010BD4FF0806097
:10162800FAE710B582B004460021009101910068E4
:1016380000F06CFE10F0007F13D169462046FFF7DA
:1016480049FF80B9019B13F4803F0ED0216D090436
:10165800206800F0D7FF30B90021206800F0EAFFC9
:1016680001E04FF4006002B010BD4FF08060FAE76F
:1016780070B581B104460E46016D0904006801F099
:1016880009F8054608B1284670BD0021206800F019
:101698003DFE3060F7E74FF00065F4E72DE9F04FC5
:1016A80087B005460C4616469B46DDF840A0FFF776
:1016B80025FA002C36D0814695F83470FFB2012FF8
:1016C80040F005810023AB6306EB0B03EA6D934200
:1016D8002ED8032385F834302B680022DA626B6C2D
:1016E800012B00D076024FF0FF3300934FEA4B23D3
:1016F800019390230293022303930023049301236D
:1017080005936946286800F004FEBBF1010F14D95F
:1017180002232B633146286800F0FAFEA0B9DDF8F1
:10172800048038E0AB6B43F00063AB630127D3E080
:10173800AB6B43F00073AB63CEE001232B63314600
:10174800286800F0CDFEE9E72B68654A9A63AB6B21
:101758001843A863012385F8343000232B63BBE0CA
:10176800286800F0AEFD2070C0F307236370C0F353
:101778000743A370000EE0700434A8F10408013692
:10178800072EEDD9FFF7BAF9A0EB0900504510D2A2
:10179800BAF1000F0DD02868466B40F22A331E407C
:1017A80015D1436B13F4004FECD0B8F1000FE9D01A
:1017B800E6E72B684A4A9A63AB6B43F00043AB6396
:1017C800012385F8343000232B63032784E0436B1F
:1017D80013F4807F05D0BBF1010F02D96B6C032B8A
:1017E80038D12B685A6B12F0080F44D15A6B12F09B
:1017F800020F4CD15A6B12F0200F54D12868436B5A
:1018080013F4001F5BD0B8F1000F58D000F059FD59
:101818002070C0F307236370C0F30743A370000E62
:10182800E0700434A8F10408FFF768F9A0EB090098
:10183800504502D2BAF1000FE0D12B68284A9A63CA
:10184800AB6B43F00043AB63012385F834300023CE
:101858002B6341E000F0A4FE03460028C1D02A68AB
:101868001F499163AA6B1343AB63012385F8343096
:1018780000232B6330E01A4A9A63AB6B43F00803EA
:10188800AB63012385F8343000232B6324E0144A2A
:101898009A63AB6B43F00203AB63012385F83430E2
:1018A80000232B6318E00E4A9A63AB6B43F02003C6
:1018B800AB63012385F8343000232B630CE040F23E
:1018C8003A538363012385F83430002704E0AB6B77
:1018D80043F00053AB630127384607B0BDE8F08FEB
:1018E800FF0540002DE9F04F8BB005460C46164623
:1018F8009B46DDF850A0FFF701F9002C37D0804651
:1019080095F83470FFB2012F40F0E2800023AB63FA
:1019180006EB0B03EA6D93422FD8032385F8343086
:101928002B680022DA626B6C012B00D076024FF034
:10193800FF3304934FEA4B23059390230693002328
:10194800079308930123099304A9286800F0E1FC90
:10195800BBF1010F16D920232B633146286800F00C
:1019680007FE0190019BABB9DDF8149040E0AB6B2A
:1019780043F00063AB630127AFE0AB6B43F0007348
:10198800AB63AAE010232B633146286800F0D8FD2A
:101998000190E7E72B68534A9A63A86B019B1843A9
:1019A800A863012385F8343000232B6395E023785E
:1019B8000393627843EA02230393A27843EA02433B
:1019C8000393E27843EA026303930434A9F1040918
:1019D80003A9286800F078FC0136072EE7D9FFF73D
:1019E8008DF8A0EB0800504510D2BAF1000F0DD0C9
:1019F8002868466B40F21A331E4015D1436B13F426
:101A0800804FECD0B9F1000FE9D0E6E72B68354AF2
:101A18009A63A86B019B1843A863012385F83430A7
:101A280000232B63032758E0436B13F4807F05D012
:101A3800BBF1010F02D96B6C032B18D12B685A6BC1
:101A480012F0080F24D15A6B12F0020F2CD15A6BE6
:101A580012F0100F34D0234A9A63AB6B43F0100393
:101A6800AB63012385F8343000232B6335E000F0A5
:101A780097FD03460028E1D02A681A499163AA6BAA
:101A88001343AB63012385F8343000232B6324E030
:101A9800144A9A63AB6B43F00803AB63012385F8E0
:101AA800343000232B6318E00E4A9A63AB6B43F083
:101AB8000203AB63012385F8343000232B630CE069
:101AC80040F23A529A63012385F83430002704E043
:101AD800AB6B43F00053AB63012738460BB0BDE84E
:101AE800F08F00BFFF054000436E9B0F0B70436EE5
:101AF800C3F383634B7090F8673003F003038B7074
:101B080090F86630CB7090F865300B7190F86430BF
:101B18004B71836E1B0DCB80B0F86A3003F00F0356
:101B28000B72836EC3F3C0334B72836EC3F380337F
:101B38008B72836EC3F34033CB72836EC3F300336F
:101B48000B7300234B73436C002B40F08680826E2E
:101B580040F6FC7303EA8203C26E43EA92730B6198
:101B6800C36EC3F3C2630B7590F86F3003F00703BD
:101B78004B75C36EC3F342538B75C36EC3F3824375
:101B8800CB75C36EC3F3C2330B760B690133436560
:101B98000A7E02F007020232934043650A7A02F095
:101BA8000F0C012202FA0CF28265520A02FB03F3BF
:101BB800C3654FF400730366C36EC3F380334B767B
:101BC800C36EC3F3C6138B76C36E03F07F03CB7665
:101BD800036FDB0F0B77036FC3F341734B77036F0F
:101BE800C3F382638B77036FC3F38353CB77036F9E
:101BF800C3F3405381F82030002381F82130B0F836
:101C0800722002F0010281F82220026FC2F3C03272
:101C180081F82320026FC2F3803281F82420026FFA
:101C2800C2F3403281F82520026FC2F3003281F8F6
:101C38002620026FC2F3812281F82720026FC2F3A7
:101C4800012281F82820026FC2F3460281F8292078
:101C5800012281F82A2018467047012B11D1836E82
:101C68001B0403F47C13B0F86E2013430B610B695B
:101C780001339B024365C3654FF4007383650366B4
:101C88009AE70368054A9A63836B43F0805383633A
:101C9800012380F834301846704700BFFF05400024
:101CA80070B590B004460123ADF81230006800F01A
:101CB80014FB00286CD0636C032B45D1636C032B99
:101CC8005DD1636C032B1DD0BDF81210216509048A
:101CD800206800F03AFD054600285BD10021206805
:101CE80000F014FB60660421206800F00FFBA0667A
:101CF8000821206800F00AFBE0660C21206800F04B
:101D080005FB20670421206800F000FB000DE0645B
:101D180005A92046FFF7E8FE00283ED1226D1204EF
:101D28000023206800F056FC054698BB234653F86C
:101D3800106B93E807008DE80700043494E80E0060
:101D4800304600F0A5FA25E0206800F0E9FC0546D9
:101D580000BB0021206800F0D9FA606704212068E0
:101D680000F0D4FAA0670821206800F0CFFAE067F5
:101D78000C21206800F0CAFAC4F880009EE70DF133
:101D88001201206800F086FD0546002899D001E080
:101D98004FF08065284610B070BD4FF08055F9E7C8
:101DA80070B58AB0044600230493059306930793FD
:101DB8000893762309930AAB13E907008DE8070017
:101DC80004AB0ECB206800F063FA18B10125284651
:101DD8000AB070BD05461A4E0023C6F8A030206828
:101DE80000F077FA0123C6F8A0300220FEF78CFE37
:101DF8002046FFF70FFB30B1012584F83450A36B60
:101E08000343A363E3E72046FFF74AFF30B1012508
:101E180084F83450A36B0343A363D8E74FF40071ED
:101E2800206800F045FB0028D1D023680549996354
:101E3800A36B0343A363012584F83450C7E700BFAD
:101E480000802542FF054000A8B110B5044690F86F
:101E5800343063B1032384F834302046FFF7A0FF01
:101E680058B9A0632063012384F8343010BD037788
:101E7800FEF70CFDEEE7012070470120F6E7436C02
:101E88000B60836C4B60C36C8B60036DCB60436DE0
:101E98000B61836D4B61C36D8B61036ECB61002059
:101EA8007047000030B58BB004460D46032380F818
:101EB8003430436C032B1CD0B1F5805F08D0B1F5EA
:101EC800006F0AD079B1836B43F00063836314E039
:101ED800836B43F0805383630FE0FFF77BFBA36BB7
:101EE8000343A36309E0FFF79CFBA36B0343A363CE
:101EF80003E0836B43F080538363A36BC3B1236810
:101F0800174A9A63012584F834504FF40071206809
:101F180000F0CEFA30B1236811499963A36B0343EB
:101F2800A3630125012384F8343028460BB030BD63
:101F380063680493A3680593E36806930795636948
:101F48000893A36909930AAB13E907008DE8070012
:101F580004AB0ECB206800F09BF90025D5E700BF45
:101F6800FF05400010B582B004460023019301A983
:101F7800FFF77EFB10B1A36B0343A3630198C0F383
:101F8800432002B010BD000038B50446026813694A
:101F980023F44053C1680B431361836802691343F8
:101FA80042691343C2691A430168CB6823F4164394
:101FB80023F00C031343CB600268536923F4407386
:101FC80081690B4353610368314A934206D002F595
:101FD8008062934202D0FFF7FDF901E0FFF70AFAA9
:101FE800E369B3F5004F29D00021031849411B18B4
:101FF80041F10001C90041EA5371DB001818636818
:102008004FEA83024FEA937341F10001FEF7E0F8CB
:10201800204DA5FB00325109642303FB11031B016A
:102028003233A5FB03235B0903F0F00202EB011234
:1020380003F00F03216813448B6038BD0023021896
:1020480043EB0301121841F10001C90041EA527142
:10205800D200101841F10001626892185B41FEF746
:10206800B7F80C4DA5FB00325109642303FB11039B
:10207800DB003233A5FB03235B095A0002F4F87234
:1020880002EB011203F00703216813448B60D4E7C5
:10209800001001401F85EB512DE9F84305460F4616
:1020A80016469946DDF820802C68246837EA040330
:1020B8000CBF4FF0010C4FF0000CB4452DD1B8F116
:1020C800FF3FF1D0B8F1000F05D0FEF717FDA0EBE8
:1020D80009004045E8D92A6802F10C0353E8003F9B
:1020E80023F4D0730C3242E800310029F3D12A6876
:1020F80002F1140353E8003F23F00103143242E8CD
:1021080000310029F3D1202385F83D3085F83E3091
:10211800002385F83C30032000E00020BDE8F88368
:1021280058B310B5044690F83D300BB3242384F817
:102138003D302268D36823F40053D3602046FFF76C
:1021480023FF2268136923F49043136122685369BB
:1021580023F02A0353612268D36843F40053D36001
:1021680000202064202384F83D3084F83E3010BDE0
:1021780080F83C30FEF7F0FBD8E7012070472DE9E6
:10218800F04182B01E4690F83D30DBB2202B54D18E
:1021980004460D469046002953D0002A53D090F8A3
:1021A8003C30012B51D0012380F83C3000230364DC
:1021B800212380F83D30FEF7A1FC0746A4F82480CF
:1021C800A4F82680A368B3F5805F05D04FF0000817
:1021D800002384F83C3012E0236913B14FF0000863
:1021E800F6E7A8460025F3E738F8023B2268C3F370
:1021F80008035360E28C92B2013A92B2E284E38C13
:102208009BB273B100963B46002280212046FFF71F
:1022180043FFE0B9002DE7D015F8012B23685A6079
:10222800E8E700963B46002240212046FFF734FFAE
:1022380078B9202384F83D3000E0022002B0BDE8E0
:10224800F0810120FAE70120F8E70220F6E70320F1
:10225800F4E70320F2E700000B4B1B680B4AA2FBD4
:1022680003235B0A41F2883202FB03F31A46013B5F
:102278003AB1426B12F0800FF8D0C5238363002077
:1022880070474FF00040704700000020D34D6210A7
:1022980084B00DF1040C8CE80E000B461343039A2E
:1022A8001343049A1343059A1343069A1343426847
:1022B80022F4FD4222F07F0213434360002004B061
:1022C8007047D0F8800070470B68C0F88030002055
:1022D80070470323036000207047006800F0030084
:1022E80070470B6883604B688A681343CA68134356
:1022F8000A691343C26822F47F6222F00F02134373
:10230800C360002070470069C0B27047143040585D
:1023180070470B6843624B6883628B68CA681343D3
:102328000A6913434A691343C26A22F0F702134346
:10233800C3620020704710B586B00446002301939D
:102348000293039304934FF48063059301A9FFF765
:10235800C8FF2046FFF780FF06B010BD38B5044619
:102368000D46504B1B685049A1FB03135B0A03FB46
:1023780002F21346013A002B5DD0636B13F0450F50
:10238800F7D013F4006FF4D1636B13F0040F06D188
:10239800636B13F0010F05D00120A0634DE004200A
:1023A800A0634AE0C523A3632046FFF7ACFFA84219
:1023B80001D0012041E000212046FFF7A7FF034696
:1023C8003A481840C8B3002B38DB13F0804F38D197
:1023D80013F0005F37D113F0805F36D113F0006F30
:1023E80036D113F0806F36D113F0807F36D113F4D5
:1023F800000F36D113F4800F36D113F4001F36D1F5
:1024080013F4801F36D113F4802F36D113F4003F14
:1024180036D113F4803F36D113F4004F36D113F47C
:10242800804F36D113F4005F36D113F0080F36D041
:102438004FF4000001E04FF0004038BD4FF000704D
:10244800FBE74020F9E78020F7E74FF48070F4E7D6
:102458004FF40070F1E74FF48060EEE74FF400604E
:10246800EBE74FF48050E8E74FF40050E5E74FF40E
:102478008040E2E74FF40040DFE74FF40030DCE74C
:102488004FF48020D9E74FF40020D6E74FF48010AE
:10249800D3E74FF40010D0E74FF48000CDE74FF4B6
:1024A8008030CAE700000020D34D621008E0FFFD2D
:1024B80030B587B004460191102502954023039357
:1024C800002304934FF48063059301A9FFF709FFE4
:1024D80041F2883229462046FFF740FF07B030BD59
:1024E80030B587B004460191112502954023039326
:1024F800002304934FF48063059301A9FFF7F1FECD
:1025080041F2883229462046FFF728FF07B030BD40
:1025180030B587B0044601911225029540230393F4
:10252800002304934FF48063059301A9FFF7D9FEB4
:1025380041F2883229462046FFF710FF07B030BD28
:1025480030B587B0044601911825029540230393BE
:10255800002304934FF48063059301A9FFF7C1FE9C
:1025680041F2883229462046FFF7F8FE07B030BD11
:1025780030B587B00446019119250295402303938D
:10258800002304934FF48063059301A9FFF7A9FE84
:1025980041F2883229462046FFF7E0FE07B030BDF9
:1025A80030B587B00446002301930C2502954022DC
:1025B800039204934FF48063059301A9FFF791FEFA
:1025C800034A29462046FFF7C9FE07B030BD00BFC1
:1025D80000E1F50530B587B004460192072502955C
:1025E80040230393002304934FF48063059301A9C8
:1025F800FFF777FE41F2883229462046FFF7AEFE04
:1026080007B030BD30B587B0044601913725029533
:1026180040230393002304934FF48063059301A997
:10262800FFF75FFE41F2883229462046FFF796FE03
:1026380007B030BD30B587B0044601910625029534
:1026480040230393002304934FF48063059301A967
:10265800FFF747FE41F2883229462046FFF77EFE03
:1026680007B030BD30B587B0044600230193332549
:1026780002954022039204934FF48063059301A9C5
:10268800FFF72FFE41F2883229462046FFF766FE03
:1026980007B030BD30B587B0044601910D250295CD
:1026A80040230393002304934FF48063059301A907
:1026B800FFF717FE41F2883229462046FFF74EFE03
:1026C80007B030BD0146144B1B68144AA2FB032314
:1026D8005B0A41F2883202FB03F31A46013BBAB1A6
:1026E8004A6B12F0450FF8D012F4006FF5D14B6B1E
:1026F80013F0040F06D1486B10F0010005D1C52373
:102708008B63704704208863704701208863704793
:102718004FF00040704700BF00000020D34D62100A
:1027280010B586B004460023019302220292C0220B
:10273800039204934FF48063059301A9FFF7D1FD39
:102748002046FFF7BFFF06B010BD10B586B004469F
:10275800019109230293C0230393002304934FF4A8
:102768008063059301A9FFF7BCFD2046FFF7AAFF88
:1027780006B010BD0146104B1B68104AA2FB03238C
:102788005B0A41F2883202FB03F31A46013B82B12D
:102798004A6B12F0450FF8D012F4006FF5D1486B70
:1027A80010F0040002D1C5238B63704704208863AE
:1027B80070474FF00040704700000020D34D621072
:1027C80010B586B0044641F0004141F480110191F2
:1027D8002923029340230393002304934FF4806337
:1027E800059301A9FFF77DFD2046FFF7C3FF06B05B
:1027F80010BD0000F8B505460E461746234B1B686A
:10280800234AA2FB03235B0A41F2883202FB03F34B
:102818001A46013B8AB36C6B14F0450FF8D014F4D8
:10282800006FF5D16B6B13F0040F06D16B6B13F0CF
:10283800010F05D00120A86321E00420A8631EE051
:102848002846FFF760FDB04201D0012017E0C523FC
:10285800AB6300212846FFF759FD034610F460409A
:1028680008D013F4804F0BD113F4004F0BD04FF462
:10287800805004E01B0C3B8001E04FF00040F8BDA5
:102888004FF40050FBE74FF48030F8E700000020D9
:10289800D34D621070B586B004460D4600230193EF
:1028A800032602964022039204934FF48063059313
:1028B80001A9FFF716FD2A4631462046FFF79AFF81
:1028C80006B070BD0146164B1B68164AA2FB0323CF
:1028D8005B0A41F2883202FB03F31A46013BE2B17C
:1028E8004A6B12F0450FF8D012F4006FF5D14B6B1C
:1028F80013F0040F0BD14B6B13F001030AD1486B93
:1029080010F040000BD040228A631846704704201C
:10291800886370470120886370474FF00040704714
:1029280000000020D34D621010B586B004464FF465
:10293800D573019308230293402303930023049340
:102948004FF48063059301A9FFF7CBFC2046FFF7FE
:10295800B9FF06B010BD000008B50349034801F0EF
:10296800E5FB034B187008BD88250020704300085C
:102978008C2500200020704700B583B000931346D3
:102988000A4601460348FEF789FE00B1012003B05C
:102998005DF804FBBC24002000B583B00093134607
:1029A8000A4601460348FEF79DFF00B1012003B027
:1029B8005DF804FBBC24002008B50348FFF7D2FAF1
:1029C800043818BF012008BDBC24002008B5014602
:1029D8000148FFF754FA08BDBC24002082B0012347
:1029E8008DF807309DF8070002B0704738B5FFF73B
:1029F800F5FF012802D00125284638BD04460748BE
:102A0800FFF722FA05460028F6D14FF40061034883
:102A1800FFF748FA0028EFD02546EDE7BC24002050
:102A280008B5074B01221A70FFF7C6FF20B9044A00
:102A3800137803F0FE031370014B187808BD00BF2C
:102A48000C00002010B50446074B01221A70FFF74E
:102A5800CDFF10B1044B187810BD2046FFF7E0FFFA
:102A6800014B1870F6E700BF0C00002008B5FFF70F
:102A7800D7FF08BD08B5084611461A464FF0FF3380
:102A8800FFF77AFF30B9FFF797FF03460028FAD11E
:102A9800184608BD0123FBE708B5084611461A4643
:102AA8004FF0FF33FFF778FF30B9FFF785FF034694
:102AB8000028FAD1184608BD0123FBE730B589B0D4
:102AC800134B187810F001041BD1154603291CD8A4
:102AD800DFE801F002040A100C4613E06846FFF72D
:102AE80075FF069B2B600DE06846FFF76FFF079B9D
:102AF8002B8007E06846FFF769FF079B5B0A2B609E
:102B080000E00324204609B030BD0424FAE700BFE2
:102B18000C00002008B5044B03EB80025268526891
:102B28000344187A904708BDB825002008B5084B1B
:102B38001B5C53B9064B01221A5403EB80025268FE
:102B480012681844007A904708BD0020FCE700BFCF
:102B5800B825002038B5044C04EB80056D68AD68D5
:102B68000444207AA84738BDB825002038B5044C5D
:102B780004EB80056D68ED680444207AA84738BDE9
:102B8800B825002010B5044B03EB80046468246961
:102B98000344187AA04710BDB82500204278007871
:102BA80040EA02207047C278837843EA02224378D9
:102BB80043EA0223007840EA032070470170090ABB
:102BC800417070470170C1F307234370C1F3074395
:102BD8008370090EC1707047944632B10A7801318A
:102BE80002700130BCF1010CF8D17047017001305E
:102BF800013AFBD1704784469CF800000CF1010CA7
:102C08000B780131C01A013A01D00028F4D070477E
:102C1800034600E00133187808B18842FAD17047BA
:102C280030B400252B4601E001250133012B15D8CE
:102C38001A01174CA258002AF6D00468A242F4D10F
:102C4800134A02EB0312546882689442EDD1104A89
:102C580002EB0312946842699442E6D1022B0AD02F
:102C6800A1B90B4A02EB03139B89B3F5807F0BD004
:102C7800002030BC70472DB9022901D01220F8E796
:102C88000020F6E70020F4E71020F2E71020F0E734
:102C980094250020002000E00130012804D8030119
:102CA800034AD358002BF7D1023818BF01207047C8
:102CB8009425002030B4002300E00133012B13D801
:102CC8001A01254CA45802689442F6D1224A02EB14
:102CD8000312546882689442EFD11F4A02EB031230
:102CE800946842699442E8D1022B0DD021B11A4A66
:102CF80002EB0312928962BB01BB174A02EB031273
:102D08009189013189B21BE00023012B05D81A01F2
:102D1800114CA2580AB10133F7E7022B17D00E4D18
:102D28001C0105EB0312D0F800C045F804C0846804
:102D380054604069906000209081D7E74FF480711B
:102D4800054A02EB03129181581C30BC70470020E1
:102D5800FBE70020F9E700BF94250020013801288F
:102D680015D80D4B03EB00139B89B3F5807F03D077
:102D78001BB1013B9BB200E00023074A02EB0012A3
:102D8800938133B903010020034AD05070470220D1
:102D980070470020704700BF94250020002302E000
:102DA80010BC70470133012B11D81A0108498A5801
:102DB8008242F7D110B41A0100248C500133012B40
:102DC800EED81A0102498A588242F7D1F3E77047D0
:102DD8009425002002398369023B8B4204D9438938
:102DE800C06A01FB03007047002070470268C36A8D
:102DF80004339089B1FBF0F15289B1FBF2F101E0A3
:102E0800091A0833186818B18142F9D25868084479
:102E1800704770B506460D4601F11A00FFF7BEFE71
:102E28003378032B00D070BD044605F11400FFF77A
:102E3800B5FE44EA0040F6E770B506460C4615466E
:102E480091B204F11A00FFF7B9FE3378032B00D0D2
:102E580070BD290C04F11400FFF7B0FEF8E700007C
:102E68002DE9F84F81468A460F6800F1240B0B22A2
:102E780020215846FFF7BAFE002633464FF00808CF
:102E88002CE001357B5D2F2BFBD05C2BF9D03D442A
:102E9800CAF80050002E43D099F82430E52B35D0DD
:102EA800202C37D8042389F82F30002028E0082662
:102EB8004FF00B0811E014F0800F23D12146194878
:102EC800FFF7A6FE50BBA4F16103DBB2192B01D8B2
:102ED800203CE4B20BF8064001362B465D1CFC5C36
:102EE800202CD4D92F2CCDD05C2CCBD02E2C01D09B
:102EF800B045E0D8B8F10B0F0ED02E2CD7D0062055
:102F0800BDE8F88F803C084B1C5DD7E7052389F89E
:102F18002430C5E70023C6E70620F1E70620EFE7DF
:102F28000620EDE784430008944300080146006842
:102F380038B102461378202B06D93A2B04D0013237
:102F4800F8E74FF0FF3070473A2B01D00020704768
:102F580010B4034613F8010B3038092808D89A42F0
:102F680002D04FF0FF3005E030B901320A6001E0CD
:102F78004FF0FF3010BC70474FF0FF30FAE738B51C
:102F88000D46044698B103689BB11A78A2B18188AE
:102F9800DA88914203D0092000242C6038BD587883
:102FA800FFF7B8FD10F0010009D12468F5E7092002
:102FB800F3E71C460920F0E709200024EDE7092083
:102FC8000024EAE72DE9F041C57815B92846BDE89F
:102FD800F0810446076B00F1340801233A46414664
:102FE8004078FFF7C3FD0546A0B90023E370636A84
:102FF800FB1AE2699342E9D2A67808E0E3691F4424
:1030080001233A4641466078FFF7B0FD013E012EA4
:10301800F4D8DBE70125D9E770B5036B8B4202D101
:103028000026304670BD04460D46FFF7CBFF064626
:103038000028F6D101232A4604F134016078FFF70D
:1030480089FD10B101264FF0FF352563E9E700003F
:1030580038B504460023C3704FF0FF330363FFF70E
:10306800DBFF30BB054604F23220FFF797FD4AF636
:10307800552398421FD194F83430E92B07D0636B5D
:1030880003F0FF130D4A934201D0022514E004F126
:103098006A00FFF788FD20F07F40094B98420BD06B
:1030A80004F18600FFF77FFD064B984204D0022505
:1030B80002E0042500E00325284638BDEB00900017
:1030C80046415400464154332DE9F04F87B00D4630
:1030D800164600230B60FFF729FF071EC0F2668122
:1030E800BF4B53F82740002C00F065812C6006F098
:1030F800FE06237873B16078FFF70CFD10F0010528
:1031080008D1002E00F0538110F0040F00F04F8119
:103118000A254CE100232370F8B26070FFF706FD22
:1031280010F0010F40F049811EB110F0040F40F07B
:10313800468104F10C0202216078FFF723FD054661
:10314800002840F03E81A289A2F500739BB2B3F536
:10315800606F00F23881531E1A4201D0012526E122
:1031680000212046FFF774FF022800F0C1800026E6
:10317800042800F02A81012800F2298104F13F0087
:10318800FFF70CFDB4F80C80404540F0228104F1B3
:103198004A00FFF703FD074620B904F15800FFF77E
:1031A80002FD0746E76194F84420A270531EDBB283
:1031B800012B00F2108107FB02F3009394F8419071
:1031C800A4F80A90B9F1000F00F0078109F1FF3364
:1031D80019EA030F40F00C8104F14500FFF7DEFC0B
:1031E800824620814FEA581BB0FBFBF30BFB13030D
:1031F8009BB2002B40F0FE8004F14700FFF7CEFCA5
:10320800019020B904F15400FFF7CDFC019004F1BE
:103218004200FFF7C3FC0146002800F0ED80009B48
:10322800C318BAFBFBFB5B44019A9A42C0F0E680E4
:10323800D21AB2FBF9F04A45C0F0E2804FF6F572B7
:1032480090426DD94FF0030B40F6F572904201D8C9
:103258004FF0010B00F10209C4F8189026628A1990
:1032680062623344E362BBF1030F5CD0BAF1000F32
:1032780000F0CC80009B1A44A262BBF1020F63D01D
:1032880009EB490209F0010303EB52034344013BF4
:10329800B3FBF8F8B84500F2BB804FF0FF33636129
:1032A800236180232371BBF1030F50D084F800B051
:1032B8004C4A138801339BB21380E3802046FFF702
:1032C8006DFD74E0002006AB03EB860343F8100C99
:1032D8000136032E0ED804F13400330103F5DF73F1
:1032E80018440379002BEDD00830FFF75CFCEAE7BF
:1032F8000026EEE700270AE031462046FFF7A8FE41
:1033080001287FF635AF0137032F3FF631AF06AB03
:1033180003EB870353F8106C002EEDD10320F2E77E
:103328004FF0020B90E704F15E00FFF737FC00282E
:1033380068D1BAF1000F67D104F16000FFF733FCE0
:10334800A0624FEA8903A1E74FEA49039EE704F127
:103358006400FFF723FC0128A8D1711C2046FFF761
:103368005BFE0028A2D10023237104F23220FFF76C
:1033780015FC4AF65523984298D104F13400FFF71A
:1033880012FC194B984291D104F50670FFF70BFC1B
:10339800164B98428AD104F50770FFF704FC606168
:1033A80004F50870FFF7FFFB20617FE70B2528462F
:1033B80007B0BDE8F08F0C25F9E70325F7E70A25E4
:1033C800F5E70125F3E70125F1E70125EFE70D25ED
:1033D800EDE70D25EBE70D25E9E70D25E7E700BF4C
:1033E80090250020B425002052526141727241613B
:1033F8000D25DCE70D25DAE70D25D8E70D25D6E7FD
:103408000D25D4E70D25D2E70D25D0E70D25CEE70C
:103418000D25CCE72DE9F047012940F296800446B6
:103428000D46174683698B4240F291800378022B40
:103438004FD0032B67D0012B03D002263046BDE8BE
:10344800F08701EB5108416A8389B8FBF3F319440B
:10345800FFF7E2FD06460028F0D104F1340A08F12E
:103468000109A389B8FBF3F203FB128815F00105E3
:1034780024D01AF9083003F00F033A0102F47F62EE
:103488001343DBB20AF808300123E370616AA389A9
:10349800B9FBF3F319442046FFF7BEFD06460028A2
:1034A800CCD1A389B9FBF3F203FB129945B1C7F359
:1034B80007120AF809200123E370BFE7FBB2E1E72E
:1034C8001AF9092022F00F02C7F303273A43D2B2B0
:1034D800EFE7416A83895B08B5FBF3F31944FFF70B
:1034E8009BFD06460028A9D104F134006D00A3898C
:1034F800B5FBF3F203FB1255B9B22844FFF75EFBA4
:103508000123E3709AE7416A83899B08B5FBF3F3CB
:103518001944FFF781FD064600288FD127F0704730
:1035280004F13403AD00A289B5FBF2F102FB115599
:103538001D442846FFF737FB00F070413943284601
:10354800FFF740FB0123E37078E7022676E70226BF
:1035580074E7F8B5056801296CD90C46AB698B424C
:103568006AD92B78022B37D0032B4BD0012B01D0F3
:10357800012060E001EB5106696AAB89B6FBF3F301
:1035880019442846FFF748FD10B14FF0FF3052E0CC
:10359800771CAB89B6FBF3F203FB12662E4496F850
:1035A8003460696AB7FBF3F319442846FFF734FD22
:1035B800002843D1AB89B7FBF3F203FB12773D44F4
:1035C80095F8340046EA002014F0010F01D00009F4
:1035D80031E0C0F30B002EE0696AAB895B08B4FBED
:1035E800F3F319442846FFF717FD50BB05F13400E3
:1035F8006400AB89B4FBF3F203FB12442044FFF7E9
:10360800CDFA18E0696AAB899B08B4FBF3F3194457
:103618002846FFF701FDB8B905F13400A400AB89CD
:10362800B4FBF3F203FB12442044FFF7BCFA20F08A
:10363800704000E00120F8BD0120FCE74FF0FF30AA
:10364800F9E74FF0FF30F6E74FF0FF30F3E72DE9E9
:10365800F041D0F80080B1F5001F4AD207460E4667
:1036680011F01F0F47D1416184682CB998F80030D8
:10367800022B01D9D8F82840ECB9B8F80830B3EBD8
:10368800561F3AD9D8F82830FB61BC61FB69E3B30F
:10369800B8F80C20B6FBF2F21344FB6108F13403CE
:1036A800B8F80C10B6FBF1F201FB1261194439624B
:1036B8000020BDE8F081B8F80A50B8F80C3003FBD8
:1036C80005F5AE420FD321463846FFF742FF0446C0
:1036D800B0F1FF3F13D0012813D9D8F8183083422E
:1036E80011D9761BEDE721464046FFF773FBF861D9
:1036F800CBE70220DDE70220DBE70220D9E7012043
:10370800D7E70220D5E70220D3E70220D1E72DE949
:10371800F041054606680F4651B9D6F81080B8F151
:10372800000F12D0B369434511D84FF001080EE0DD
:10373800FFF70FFF0346012847D9B0F1FF3F49D0F3
:10374800B269824246D8B84601E04FF001084446C3
:103758000CE021462846FFF7FCFE034678B1012815
:1037680038D0B0F1FF3F35D0444532D00134B36989
:10377800A342EED8B8F1010F29D90224E9E74FF0A6
:10378800FF3221463046FFF745FE034600B977B9B8
:10379800A3B934617269B369023B9A4201D8013A0C
:1037A8007261337943F001033371234612E02246F4
:1037B80039463046FFF72EFE0346E9E7012B01D0D4
:1037C800012307E04FF0FF3304E0012302E0002368
:1037D80000E000231846BDE8F081F8B50C460568FE
:1037E80001292ED906461146AB69A3422BD94AB105
:1037F8004FF0FF322846FFF70DFE074610B123E0D1
:10380800A24221D9274621463046FFF7A2FE0446A8
:10381800E0B101281CD0B0F1FF3F1BD0002239468F
:103828002846FFF7F7FD074670B96B69AA69911E2C
:103838008B42E5D201336B612B7943F001032B7185
:10384800DEE7022700E002273846F8BD0027FBE73D
:103858000227F9E70127F7E72DE9F84306684469E5
:10386800C369002B74D005460F462034B4F5001FF9
:1038780070D2B189B4FBF1F201FB12423AB90133BB
:10388800C3618169A1B93389B3EB541F0CD96C6149
:1038980006F13403B289B4FBF2F102FB11441C4473
:1038A8002C620020BDE8F8830023C3610420F9E7F7
:1038B800B289B4FBF2F27389013B12EA0308E6D13C
:1038C800FFF747FE8146012846D9B0F1FF3F45D0B2
:1038D800B369834234D88FB1A9692846FFF717FF27
:1038E800814600283CD001283CD0B0F1FF3F3BD0B6
:1038F8003046FFF767FB28B10120D3E70023EB61CF
:103908000420CFE7B289002106F13400FFF76EF9F1
:1039180049463046FFF75EFA3063738998450BD203
:103928000123F3703046FFF74DFBF8B908F10108A1
:10393800336B01333363F0E7336BA3EB0803336373
:10394800C5F8189049463046FFF744FAE8619EE703
:103958000420A7E70420A5E70220A3E70120A1E7A8
:1039680007209FE702209DE701209BE7012099E7B8
:1039780070B5044606680021FFF769FE054640B1A8
:10398800284670BD00212046FFF766FF054600283F
:10399800F6D1E1693046FFF73FFB05460028EFD135
:1039A800206A03787BB1C37A03F03F03A371C37A1B
:1039B80013F0080FE6D10B2204F12401FFF71BF9DD
:1039C8000028DFD1DCE70425DAE730B583B0044608
:1039D8000191056801E001330193019B1A782F2AB0
:1039E800F9D05C2AF7D00022A2601B781F2B21D9BE
:1039F80001A92046FFF734FA034618BB2046FFF713
:103A0800B7FF94F82F200346F8B912F0040F19D124
:103A1800A37913F0100F1FD005F134036169AA8947
:103A2800B1FBF2F002FB101119442846FFF7F1F937
:103A3800A060DDE7802384F82F3011462046FFF789
:103A480006FE0346184603B030BD0428FAD112F02A
:103A5800040FF7D10523F5E70523F3E7F8B5044686
:103A68000E4607680021FFF7F2FD0246C0B900259F
:103A780008E00135B54213D001212046FFF7ECFEDE
:103A8800024668B9E1693846FFF7C6FA024638B90E
:103A9800236A1B78E52BECD0002BEAD00025EBE756
:103AA800042A01D01046F8BD0722FBE770B504468A
:103AB80006680121FFF7D2FF054608B1284670BD08
:103AC800E1693046FFF7A8FA05460028F6D120221A
:103AD8000021206AFFF78AF80B2204F12401206AEA
:103AE800FFF77AF80123F370E8E7000070B50446A1
:103AF800FFF768FA054648B92378032B08D0002257
:103B080011466078FFF73EF800B10125284670BDE0
:103B18002379012BF3D104F13406A2890021304620
:103B2800FFF764F84AF6552104F23220FFF746F809
:103B38000E493046FFF746F80D4904F50670FFF7C1
:103B480041F8616904F50770FFF73CF8216904F54D
:103B58000870FFF737F8226A0132226301233146E1
:103B68006078FFF703F800232371C8E752526141D8
:103B78007272416170B584B001900091164603914C
:103B880003A8FFF7D3F9041E1CDB104B53F824508D
:103B980025B12846FFF702F900232B70019B0BB1D2
:103BA80000221A70019B094A42F8243063B1012EA1
:103BB80002D0002004B070BD002201A96846FFF7BA
:103BC80083FAF7E70B20F5E70020F3E790250020BC
:103BD8002DE9F04391B00191002800F011811546BC
:103BE800064602F03F073A4603A901A8FFF76CFA18
:103BF800044630B10CB100233360204611B0BDE853
:103C0800F083039B0493019904A8FFF7DEFE0446A2
:103C180060B99DF93F30002B50DB37F0010314BF2A
:103C28000121002104A8FEF7FBFF044615F01C0F34
:103C38005AD0002C4ED0042C42D047F00807002C54
:103C480061D117F0080F5ED0FEF794FE05460146D5
:103C58000C980E30FEF7B6FF29460C981630FEF782
:103C6800B1FF0C9B2022DA72DDF80C80DDF8309071
:103C780049464046FFF7CDF80546002249464046EA
:103C8800FFF7DAF800210C981C30FEF79BFF039B26
:103C98000122DA70BDB3039BD3F830800022294695
:103CA80004A8FFF79AFD044668BB41460398FFF74E
:103CB800B3F90446013D039B1D6124E00624B5E7E2
:103CC800FEF7E8FF08B91224B7E704A8FFF7EEFEED
:103CD8000446B2E79DF8163013F0110F12D115F013
:103CE800040FACD008240EE06CB99DF8163013F020
:103CF800100F4ED115F0020F05D013F0010F02D0AE
:103D0800072416E00724A4B917F0080F01D047F0DC
:103D18004007039B1B6B73620C9BB36237F0010374
:103D280014BF0121002104A8FEF7C4FF3061002858
:103D380064D0002C7FF45EAF039DDDF830804146EF
:103D48002846FFF766F8B06008F11C00FEF72BFF65
:103D5800F0600021F1623560EB88B38037757175CA
:103D68003162B16106F130084FF480524046FEF7E7
:103D78003DFF17F0200F3FF43DAFF568002D3FF4ED
:103D880039AFB561039B5F899B8903FB07F7B1686E
:103D980005E00424CDE7B1F1FF3F0BD0ED1B5CB982
:103DA800BD4209D93046FFF7D4FB01460128F2D8B5
:103DB8000224F0E70124F1E7F161002C7FF41AAF47
:103DC800039FB7F80C90B5FBF9F309FB1353002BCD
:103DD8003FF410AF3846FEF7FDFF08B902240AE7A2
:103DE800B5FBF9F202443262012341467878FEF7C6
:103DF800B1FE00283FF4FEAE0124FCE60224F9E6F9
:103E08000924FAE62DE9F04F85B004460F46154619
:103E180098460023C8F8003003A9FFF7B0F80190CE
:103E280000284AD1637D0193002B46D1237D13F0EE
:103E3800020F00F0EC80A369EB42C0F0B680DD43CE
:103E4800B3E0E36A002B3CD02046FEF7CFFF002802
:103E580000F0D880012839D0B0F1FF3F3DD0E061B3
:103E6800A36803B9A06094F91430002B3CDBDDF89B
:103E78000CB0E1695846FEF7ADFF8146002848D0EE
:103E8800B144BBF80C30B5FBF3FAAB425FD806EB94
:103E98000A03BBF80A20934201D9A2EB060A53464B
:103EA8004A4639469BF80100FEF760FEC0B34FF062
:103EB800010A84F815A0CDF804A0019805B0BDE862
:103EC800F08FE1692046FFF722FCC0E74FF0020AB5
:103ED80084F815A0CDF804A0EFE74FF0010A84F8A4
:103EE80015A0CDF804A0E8E70123226A04F1300107
:103EF80003984078FEF73AFE20B9237D03F07F034C
:103F08002375B4E74FF0010A84F815A0CDF804A092
:103F1800D3E74FF0020A84F815A0CDF804A0CCE747
:103F2800216AA1EB0901514504D3039B9E890AFB31
:103F380006F62BE0039B9A8902FB017104F130001D
:103F4800FEF74AFE237D03F07F032375EDE7236A1E
:103F58004B4503D0A269E3689A4242D3C4F8209043
:103F6800039B9E89A369B3FBF6F006FB1033F61A90
:103F7800B54200D22E4604F1300032463946184484
:103F8800FEF72AFE237D63F07F0323753744A36978
:103F98003344A361E268934238BF1346E360D8F81C
:103FA80000303344C8F80030AD1B5DB3A169039AF3
:103FB8009689B1FBF6F306FB1313002BD0D1B1FBA6
:103FC800F6F65389013B1E407FF44DAF00297FF47C
:103FD80038AFA06800287FF43AAF2046FFF797FB78
:103FE80035E701234A4604F130019BF80100FEF74A
:103FF800B1FD0028B2D04FF0010A84F815A0CDF821
:1040080004A05AE7237D43F04003237555E70723AF
:10401800019352E770B582B0044601A9FEF7AFFFDD
:1040280070B9237D13F0400F0AD013F0800F09D127
:10403800FEF7A0FC0546616A0198FEF7EDFF78B12E
:1040480002B070BD0123226A04F130010198407862
:10405800FEF78CFD40BB237D03F07F032375E7E764
:10406800A66AF37A43F02003F372A2683146206807
:10407800FEF7E2FEE16806F11C00FEF7A3FD294603
:1040880006F11600FEF79EFD002106F11200FEF76C
:1040980095FD019B0122DA700198FFF727FD237D2A
:1040A80023F040032375CBE70120C9E710B582B0A0
:1040B8000446FFF7AFFF08B102B010BD01A92046C2
:1040C800FEF75DFF0028F7D12069FEF747FE0028BC
:1040D800F2D12060F0E70000134B5B7A13BB10B5F8
:1040E800044603F0FF00104B93F809C05FFA8CFCFC
:1040F8004FF0000E03F80CE093F809C003EB8C0CAA
:10410800CCF804405C7A1C4422725A7A541CE4B2FB
:104118005C7230320A703A234B702F238B7081F80F
:1041280003E010BD01207047B825002008B5002223
:10413800FFF7D2FF08BD000070B50D4E0D4D761B80
:10414800B61006D0002455F8043B01349847A6421F
:10415800F9D1094E094D761B00F0D4F8B61006D0F7
:10416800002455F8043B01349847A642F9D170BDA4
:10417800204400082044000828440008204400087F
:10418800830730B548D0541E002A3FD0CAB2034630
:1041980001E0013C3AD303F8012B9D07F9D1032C28
:1041A8002DD9CDB245EA05250F2C45EA054536D966
:1041B800A4F1100222F00F0C03F1200EE6444FEA9E
:1041C800121C03F1100242E9045542E9025510326B
:1041D8007245F8D10CF1010214F00C0F03EB021236
:1041E80004F00F0C13D0ACF1040323F003030433E1
:1041F800134442F8045B9342FBD10CF003042CB146
:10420800CAB21C4403F8012B9C42FBD130BD644662
:104218001346002CF4D1F9E703461446BFE71A46C3
:10422800A446E0E7024B13B1024800F005B8704716
:10423800000000004D420008002301461A461846B7
:1042480000F01AB838B5084B084D5B1B9C1007D016
:10425800043B1D44013C55F804399847002CF9D11A
:10426800BDE8384000F054B82C4400082844000841
:10427800704700BF704700BF2DE9F047DFF87CA00A
:104288000646DAF8000098460F469146FFF7F0FF19
:104298001B4B1B68D3F8484124B365681F2D26DCE7
:1042A8005EB96B1C0235DAF80000636044F82570CB
:1042B800FFF7E0FF0020BDE8F08704EB850101234C
:1042C800C1F88890D4F88821AB401A43022EC4F86C
:1042D8008821C1F80881E4D1D4F88C211343C4F8AB
:1042E8008C31DEE703F5A674C3F84841D5E7DAF860
:1042F8000000FFF7BFFF4FF0FF30DCE73804002075
:1043080014440008F8B500BFF8BC08BC9E467047C6
:0C431800F8B500BFF8BC08BC9E4670471A
:104324006D793030312E74787400000048656C6CFF
:104334006F2077726974652066726F6D2053746D97
:10434400333220746F204D6963726F2053442121EE
:10435400210000000000000000000000010203042E
:104364000607080900000000010203044D2A0008A2
:10437400752A00087D2A0008A12A0008C52A000819
:10438400222A2B2C3A3B3C3D3E3F5B5D7C7F000068
:1043940043554541414141434545454949494141C9
:1043A4004592924F4F4F5555594F554F9C4F9E9F95
:1043B40041494F55A5A5A6A7A8A9AAABACADAEAFD8
:1043C400B0B1B2B3B4414141B8B9BABBBCBDBEBFD0
:1043D400C0C1C2C3C4C54141C8C9CACBCCCDCECF6C
:1043E400D1D145454549494949D9DADBDCDD49DFC5
:1043F4004FE14F4F4F4FE6E8E85555555959EEEF09
:10440400F0F1F2F3F4F5F6F7F8F9FAFBFCFDFEFF30
:044414001000002074
:08441800F0BDFF7F0100000070
:084420002D420008BD01000857
:0444280099010008EE
:10442C000024F40001000000100000000100000056
:10443C0000000000FC02002064030020CC030020DC
:10444C000000000000000000000000000000000060
:10445C000000000000000000000000000000000050
:10446C000000000000000000000000000000000040
:10447C000000000000000000000000000000000030
:10448C000000000000000000000000000000000020
:10449C000000000000000000000000000000000010
:1044AC000000000000000000000000000000000000
:1044BC0000000000000000000000000000000000F0
:1044CC0000000000000000000000000000000000E0
:1044DC0000000000000000000100000000000000CF
:1044EC000E33CDAB34126DE6ECDE05000B00000094
:1044FC0000000000000000000000000000000000B0
:10450C00000000000000000000000000000000009F
:10451C00000000000000000000000000000000008F
:10452C00000000000000000000000000000000007F
:0C485C000000000000000000C425002047
:0400000508000A19CC
:00000001FF
