:020000040800F2
:1000000000000220353500088D3300088F330008CA
:100010009133000893330008953300080000000076
:1000200000000000000000000000000097330008FE
:1000300099330008000000009B3300089D3300083E
:1000400085350008853500088535000885350008A8
:100050008535000885350008853500088535000898
:100060008535000885350008853500088535000888
:100070008535000885350008853500088535000878
:10008000853500088535000885350008000000002A
:10009000000000000000000000000000853500089E
:1000A0008535000885350008853500088535000848
:1000B0008535000885350008853500088535000838
:1000C0008535000885350008853500088535000828
:1000D00085350008853500088535000800000000DA
:1000E00085350008853500088535000800000000CA
:1000F000000000000000000000000000853500083E
:1001000000000000853500088535000885350008A9
:1001100000000000000000000000000000000000DF
:1001200085350008853500088535000885350008C7
:1001300085350008000000000000000000000000FD
:1001400000000000000000000000000085350008ED
:100150008535000885350008853500088535000897
:10016000853500088535000800000000000000000B
:10017000000000000000000000000000000000007F
:1001800000000000853500080000000000000000AD
:080190008535000885350008E3
:1001C00010B5054C237833B9044B13B10448AFF391
:1001D00000800123237010BDC00900200000000032
:1001E000140C010808B5034B1BB103490348AFF3D6
:1001F000008008BD00000000C4090020140C0108A4
:1002000081F0004102E000BF83F0004330B54FEAC7
:1002100041044FEA430594EA050F08BF90EA020F34
:100220001FBF54EA000C55EA020C7FEA645C7FEAC7
:10023000655C00F0E2804FEA5454D4EB5555B8BFEA
:100240006D420CDD2C4480EA020281EA030382EA5B
:10025000000083EA010180EA020281EA0303362DED
:1002600088BF30BD11F0004F4FEA01314FF4801CC0
:100270004CEA113102D0404261EB410113F0004FD2
:100280004FEA03334CEA133302D0524263EB430389
:1002900094EA050F00F0A780A4F10104D5F1200E27
:1002A0000DDB02FA0EFC22FA05F2801841F1000182
:1002B00003FA0EF2801843FA05F359410EE0A5F156
:1002C00020050EF1200E012A03FA0EFC28BF4CF087
:1002D000020C43FA05F3C01851EBE37101F000453D
:1002E00007D54FF0000EDCF1000C7EEB00006EEB4A
:1002F0000101B1F5801F1BD3B1F5001F0CD34908D4
:100300005FEA30004FEA3C0C04F101044FEA44522A
:1003100012F5800F80F09A80BCF1004F08BF5FEAB1
:10032000500C50F1000041EB045141EA050130BD91
:100330005FEA4C0C404141EB0101013C28BFB1F5A3
:10034000801FE9D291F0000F04BF01460020B1FAEE
:1003500081F308BF2033A3F10B03B3F120020CDAC1
:100360000C3208DD02F1140CC2F10C0201FA0CF09F
:1003700021FA02F10CE002F11402D8BFC2F1200C04
:1003800001FA02F120FA0CFCDCBF41EA0C019040BA
:10039000E41AA2BF01EB0451294330BD6FEA040403
:1003A0001F3C1CDA0C340EDC04F11404C4F12002EE
:1003B00020FA04F001FA02F340EA030021FA04F300
:1003C00045EA030130BDC4F10C04C4F1200220FA57
:1003D00002F001FA04F340EA0300294630BD21FA95
:1003E00004F0294630BD94F0000F83F4801306BF5B
:1003F00081F480110134013D4EE77FEA645C18BF4F
:100400007FEA655C29D094EA050F08BF90EA020FE5
:1004100005D054EA000C04BF1946104630BD91EADD
:10042000030F1EBF0021002030BD5FEA545C05D1E0
:100430004000494128BF41F0004130BD14F580041F
:100440003CBF01F5801130BD01F0004545F0FE4193
:1004500041F470014FF0000030BD7FEA645C1ABFC8
:10046000194610467FEA655C1CBF0B46024650EAFF
:10047000013406BF52EA033591EA030F41F400212B
:1004800030BD00BF90F0000F04BF0021704730B5B1
:100490004FF4806404F132044FF000054FF0000186
:1004A00050E700BF90F0000F04BF0021704730B547
:1004B0004FF4806404F1320410F0004548BF40421C
:1004C0004FF000013EE700BF42004FEAE2014FEA71
:1004D00031014FEA02701FBF12F07F4393F07F4F4C
:1004E00081F06051704732F07F4208BF704793F04F
:1004F0007F4F04BF41F40021704730B54FF4607462
:1005000001F0004521F000411CE700BF50EA010264
:1005100008BF704730B54FF000050AE050EA01020D
:1005200008BF704730B511F0004502D5404261EB7D
:1005300041014FF4806404F132045FEA915C3FF4BE
:10054000D8AE4FF003025FEADC0C18BF03325FEA5B
:10055000DC0C18BF033202EBDC02C2F1200300FA0C
:1005600003FC20FA02F001FA03FE40EA0E0021FA31
:1005700002F11444BDE600BF70B54FF0FF0C4CF41F
:10058000E06C1CEA11541DBF1CEA135594EA0C0FD1
:1005900095EA0C0F00F0DEF82C4481EA030621EA0C
:1005A0004C5123EA4C5350EA013518BF52EA033547
:1005B00041F4801143F4801338D0A0FB02CE4FF0F9
:1005C0000005E1FB02E506F00042E0FB03E54FF029
:1005D0000006E1FB03569CF0000F18BF4EF0010E21
:1005E000A4F1FF04B6F5007F64F5407404D25FEA1D
:1005F0004E0E6D4146EB060642EAC62141EA5551D0
:100600004FEAC52040EA5E504FEACE2EB4F1FD0C11
:1006100088BFBCF5E06F1ED8BEF1004F08BF5FEA8F
:10062000500E50F1000041EB045170BD06F0004641
:1006300046EA010140EA020081EA0301B4EB5C04EE
:10064000C2BFD4EB0C0541EA045170BD41F48011E6
:100650004FF0000E013C00F3AB8014F1360FDEBF0B
:10066000002001F0004170BDC4F10004203C35DAE7
:100670000C341BDC04F11404C4F1200500FA05F36A
:1006800020FA04F001FA05F240EA020001F000420B
:1006900021F0004110EBD37021FA04F642EB060181
:1006A0005EEA430E08BF20EAD37070BDC4F10C04AB
:1006B000C4F1200500FA04F320FA05F001FA04F26F
:1006C00040EA020001F0004110EBD37041F100015B
:1006D0005EEA430E08BF20EAD37070BDC4F1200566
:1006E00000FA05F24EEA020E20FA04F301FA05F2CE
:1006F00043EA020321FA04F001F0004121FA04F276
:1007000020EA020000EBD3705EEA430E08BF20EA45
:10071000D37070BD94F0000F0FD101F0004640007F
:1007200041EB010111F4801F08BF013CF7D041EA01
:10073000060195F0000F18BF704703F00046520005
:1007400043EB030313F4801F08BF013DF7D043EAD6
:100750000603704794EA0C0F0CEA135518BF95EA8C
:100760000C0F0CD050EA410618BF52EA4306D1D113
:1007700081EA030101F000414FF0000070BD50EA32
:10078000410606BF1046194652EA430619D094EABC
:100790000C0F02D150EA013613D195EA0C0F05D1A6
:1007A00052EA03361CBF104619460AD181EA0301FA
:1007B00001F0004141F0FE4141F470014FF00000B2
:1007C00070BD41F0FE4141F4780170BD70B54FF04D
:1007D000FF0C4CF4E06C1CEA11541DBF1CEA1355CD
:1007E00094EA0C0F95EA0C0F00F0A7F8A4EB0504AF
:1007F00081EA030E52EA03354FEA013100F08880A6
:100800004FEA03334FF0805545EA131343EA12636E
:100810004FEA022245EA111545EA10654FEA002623
:100820000EF000419D4208BF964244F1FD0404F5DC
:10083000407402D25B084FEA3202B61A65EB030538
:100840005B084FEA32024FF480104FF4002CB6EBF5
:10085000020E75EB030E22BFB61A754640EA0C0075
:100860005B084FEA3202B6EB020E75EB030E22BFB5
:10087000B61A754640EA5C005B084FEA3202B6EBF6
:10088000020E75EB030E22BFB61A754640EA9C00B5
:100890005B084FEA3202B6EB020E75EB030E22BF85
:1008A000B61A754640EADC0055EA060E18D04FEA43
:1008B000051545EA16754FEA06164FEAC30343EAE3
:1008C00052734FEAC2025FEA1C1CC0D111F4801FB0
:1008D0000BD141EA00014FF000004FF0004CB6E7A9
:1008E00011F4801F04BF01430020B4F1FD0C88BF48
:1008F000BCF5E06F3FF6AFAEB5EB030C04BFB6EB53
:10090000020C5FEA500C50F1000041EB045170BD45
:100910000EF0004E4EEA113114EB5C04C2BFD4EB72
:100920000C0541EA045170BD41F480114FF0000EF6
:10093000013C90E645EA060E8DE60CEA135594EA72
:100940000C0F08BF95EA0C0F3FF43BAF94EA0C0F75
:100950000AD150EA01347FF434AF95EA0C0F7FF4EA
:1009600025AF104619462CE795EA0C0F06D152EA3E
:1009700003353FF4FDAE1046194622E750EA410622
:1009800018BF52EA43067FF4C5AE50EA41047FF433
:100990000DAF52EA43057FF4EBAE12E74FEA410296
:1009A00012F5001215D211D56FF47873B3EB6252C1
:1009B00012D94FEAC12343F0004343EA505311F0E8
:1009C000004F23FA02F018BF404270474FF000007A
:1009D000704750EA013005D111F0004008BF6FF0B8
:1009E000004070474FF00000704700BF4FEA4102DF
:1009F000B2F1E04324BFB3F5001CDCF1FE5C0DD97D
:100A000001F0004C4FEAC0024CEA5070B2F1004FC6
:100A100040EB830008BF20F00100704711F0804FC9
:100A200021D113F13872BCBF01F00040704741F48E
:100A300080114FEA5252C2F11802C2F1200C10FA92
:100A40000CF320FA02F018BF40F001004FEAC12376
:100A50004FEAD32303FA0CFC40EA0C0023FA02F31A
:100A60004FEA4303CCE77FEA625307D150EA0133F0
:100A70001EBF4FF0FE4040F44000704701F00040C0
:100A800040F0FE4040F40000704700BF80F000409E
:100A900002E000BF81F0004142001FBF5FEA410356
:100AA00092EA030F7FEA226C7FEA236C6AD04FEA56
:100AB0001262D2EB1363C1BFD2184140484041409B
:100AC000B8BF5B42192B88BF704710F0004F40F44D
:100AD000000020F07F4018BF404211F0004F41F469
:100AE000000121F07F4118BF494292EA030F3FD035
:100AF000A2F1010241FA03FC10EB0C00C3F1200348
:100B000001FA03F100F0004302D5494260EB4000D6
:100B1000B0F5000F13D3B0F1807F06D340084FEA41
:100B2000310102F10102FE2A51D2B1F1004F40EB36
:100B3000C25008BF20F0010040EA0300704749009E
:100B400040EB0000013A28BFB0F5000FEDD2B0FA3B
:100B500080FCACF1080CB2EB0C0200FA0CF0AABF5E
:100B600000EBC25052421843BCBFD04018437047FC
:100B700092F0000F81F4000106BF80F40000013202
:100B8000013BB5E74FEA41037FEA226C18BF7FEAD9
:100B9000236C21D092EA030F04D092F0000F08BF1B
:100BA0000846704790EA010F1CBF0020704712F002
:100BB0007F4F04D1400028BF40F00040704712F141
:100BC00000723CBF00F50000704700F0004343F0A6
:100BD000FE4040F4000070477FEA226216BF0846DC
:100BE0007FEA23630146420206BF5FEA412390EA9F
:100BF000010F40F4800070474FF0000304E000BF95
:100C000010F0004348BF40425FEA000C08BF704745
:100C100043F0964301464FF000001CE050EA010209
:100C200008BF70474FF000030AE000BF50EA01021E
:100C300008BF704711F0004302D5404261EB41010B
:100C40005FEA010C02BF84460146002043F0B64330
:100C500008BFA3F18053A3F50003BCFA8CF2083A55
:100C6000A3EBC25310DB01FA02FC634400FA02FC5E
:100C7000C2F12002BCF1004F20FA02F243EB020065
:100C800008BF20F00100704702F1200201FA02FCC7
:100C9000C2F1200250EA4C0021FA02F243EB0200BA
:100CA00008BF20EADC7070474FF0FF0C1CEAD052FE
:100CB0001EBF1CEAD15392EA0C0F93EA0C0F6FD0BF
:100CC0001A4480EA010C400218BF5FEA41211ED09D
:100CD0004FF0006343EA501043EA5111A0FB013189
:100CE0000CF00040B1F5000F3EBF490041EAD3715E
:100CF0005B0040EA010062F17F02FD2A1DD8B3F1DA
:100D0000004F40EBC25008BF20F00100704790F048
:100D1000000F0CF0004C08BF49024CEA502040EA9A
:100D200051207F3AC2BFD2F1FF0340EAC250704760
:100D300040F400004FF00003013A5DDC12F1190F9E
:100D4000DCBF00F000407047C2F10002410021FA10
:100D500002F1C2F1200200FA02FC5FEA310040F128
:100D6000000053EA4C0308BF20EADC70704792F0A1
:100D7000000F00F0004C02BF400010F4000F013AD9
:100D8000F9D040EA0C0093F0000F01F0004C02BFD4
:100D9000490011F4000F013BF9D041EA0C018FE743
:100DA0000CEAD15392EA0C0F18BF93EA0C0F0AD049
:100DB00030F0004C18BF31F0004CD8D180EA01006F
:100DC00000F00040704790F0000F17BF90F0004F08
:100DD000084691F0000F91F0004F14D092EA0C0FEA
:100DE00001D142020FD193EA0C0F03D14B0218BF7D
:100DF000084608D180EA010000F0004040F0FE40C3
:100E000040F40000704740F0FE4040F4400070475E
:100E10004FF0FF0C1CEAD0521EBF1CEAD15392EADD
:100E20000C0F93EA0C0F69D0A2EB030280EA010CCD
:100E300049024FEA402037D04FF0805343EA111166
:100E400043EA10130CF000408B4238BF5B0042F1C4
:100E50007D024FF4000C8B4224BF5B1A40EA0C0069
:100E6000B3EB510F24BFA3EB510340EA5C00B3EB9B
:100E7000910F24BFA3EB910340EA9C00B3EBD10F89
:100E800024BFA3EBD10340EADC001B0118BF5FEADB
:100E90001C1CE0D1FD2A3FF650AF8B4240EBC25004
:100EA00008BF20F0010070470CF0004C4CEA5020C5
:100EB0007F32C2BFD2F1FF0340EAC250704740F414
:100EC00000004FF00003013A37E792F0000F00F006
:100ED000004C02BF400010F4000F013AF9D040EA84
:100EE0000C0093F0000F01F0004C02BF490011F418
:100EF000000F013BF9D041EA0C0195E70CEAD15310
:100F000092EA0C0F08D142027FF47DAF93EA0C0FF6
:100F10007FF470AF084676E793EA0C0F04D14B02DA
:100F20003FF44CAF08466EE730F0004C18BF31F08C
:100F3000004CCAD130F000427FF45CAF31F0004386
:100F40007FF43CAF5FE700BF4FF0FF3C06E000BF1F
:100F50004FF0010C02E000BF4FF0010C4DF804CD42
:100F60004FEA40024FEA41037FEA226C18BF7FEA52
:100F7000236C11D001B052EA530C18BF90EA010F54
:100F800058BFB2EB030088BFC81738BF6FEAE170E3
:100F900018BF40F0010070477FEA226C02D15FEA7F
:100FA000402C05D17FEA236CE4D15FEA412CE1D0EB
:100FB0005DF8040B704700BF844608466146FFE7B2
:100FC0000FB5FFF7C9FF002848BF10F1000F0FBD94
:100FD0004DF808EDFFF7F4FF0CBF012000205DF88D
:100FE00008FB00BF4DF808EDFFF7EAFF34BF012012
:100FF00000205DF808FB00BF4DF808EDFFF7E0FFAB
:1010000094BF012000205DF808FB00BF4DF808EDFB
:10101000FFF7D2FF94BF012000205DF808FB00BF5E
:101020004DF808EDFFF7C8FF34BF012000205DF840
:1010300008FB00BF4FEA4002B2F1FE4F0FD34FF062
:101040009E03B3EB12620DD94FEA002343F0004335
:1010500010F0004F23FA02F018BF404270474FF0E3
:101060000000704712F1610F01D1420205D110F06A
:10107000004008BF6FF0004070474FF0000070471D
:1010800053B94AB9002908BF00281CBF4FF0FF31EF
:101090004FF0FF3000F092B9ADF1080C6DE904CECD
:1010A00000F024F8DDF804E0DDE9022304B0704725
:1010B000D0B50C4B002206460F46FFF75DFA00F054
:1010C0007FF90446FFF7DEF9074B0022FFF754FAD9
:1010D00002460B4630463946FFF796F800F070F9A5
:1010E0002146D0BD0000F03D0000F0412DE9F04761
:1010F000089E0D4604468846002B4DD18A429446F0
:1011000068D9B2FA82F252B101FA02F3C2F12001B7
:1011100020FA01F10CFA02FC41EA030894404FEA7C
:101120001C45210CB8FBF5FE1FFA8CF705FB1E834E
:1011300041EA03430EFB07F199420BD91CEB030371
:101140000EF1FF3080F01E81994240F21B81AEF11A
:10115000020E63445B1AA4B2B3FBF5F005FB103337
:1011600044EA034400FB07F7A7420AD91CEB040436
:1011700000F1FF3380F00881A74240F2058164440A
:101180000238E41B40EA0E4000211EB1D440002387
:10119000C6E90043BDE8F0878B4208D9002E00F075
:1011A000EE800021C6E900050846BDE8F087B3FAE5
:1011B00083F100294AD1AB4202D3824200F2F98086
:1011C000841A65EB030301209846002EE2D0C6E99D
:1011D0000048DFE702B9FFDEB2FA82F2002A40F0EF
:1011E0009180A1EB0C054FEA1C471FFA8CFE0121F0
:1011F000B5FBF7F307FB1350250C45EA00450EFB42
:1012000003F0A84208D91CEB050503F1FF3802D210
:10121000A84200F2CB8043462D1AA4B2B5FBF7F0EA
:1012200007FB105544EA05440EFB00FEA64508D90D
:101230001CEB040400F1FF3502D2A64500F2BB808E
:101240002846A4EB0E0440EA03409EE7C1F12007C4
:101250008B4022FA07FC4CEA030C20FA07F405FA4B
:1012600001F31C43FD404FEA1C4900FA01F3B5FBB2
:10127000F9F8200C1FFA8CFE09FB185540EA0545C9
:1012800008FB0EF0A84202FA01F20BD91CEB05058F
:1012900008F1FF3A80F08880A84240F28580A8F1EA
:1012A000020865442D1AA4B2B5FBF9F009FB1055EC
:1012B00044EA054500FB0EFEAE4508D91CEB0505CA
:1012C00000F1FF346CD2AE456AD90238654440EA79
:1012D0000840A0FB0294A5EB0E05A542C846A64611
:1012E00056D353D05EB1B3EB080265EB0E0505FA99
:1012F00007F722FA01F3CD401F43C6E9007500212C
:10130000BDE8F087C2F1200320FA03F10CFA02FCD9
:1013100025FA03F395400D434FEA1C471FFA8CFE54
:10132000B3FBF7F107FB11302B0C43EA004301FB41
:101330000EF0984204FA02F408D91CEB030301F101
:10134000FF382FD298422DD9023963441B1AADB20F
:10135000B3FBF7F007FB103345EA034500FB0EF340
:10136000AB4208D91CEB050500F1FF3816D2AB42A1
:1013700014D902386544ED1A40EA014138E7314694
:10138000304607E78646E5E61846FAE64B45A9D219
:10139000B9EB020864EB0C0E0138A3E74046EAE71C
:1013A000204694E74146D1E7D0467BE7023B6544BF
:1013B00032E7084609E76444023842E7704700BF55
:1013C0004A0011D212F5001211D20DD56FF47873C4
:1013D000B3EB62520ED44FEAC12343F0004343EA19
:1013E000505323FA02F070474FF00000704750EA64
:1013F000013002D14FF0FF3070474FF000007047CE
:1014000090F800F06DE9024520F007016FF0000C44
:1014100010F0070491F820F040F049804FF00004EC
:101420006FF00700D1E9002391F840F000F10800C7
:1014300082FA4CF2A4FA8CF283FA4CF3A2FA8CF3FF
:101440004BBBD1E9022382FA4CF200F10800A4FA66
:101450008CF283FA4CF3A2FA8CF3E3B9D1E90423BA
:1014600082FA4CF200F10800A4FA8CF283FA4CF3F1
:10147000A2FA8CF37BB9D1E9062301F1200182FAAB
:101480004CF200F10800A4FA8CF283FA4CF3A2FAB1
:101490008CF3002BC6D0002A04BF04301A4612BABF
:1014A000B2FA82F2FDE8024500EBD2007047D1E9C2
:1014B000002304F00305C4F100004FEAC50514F051
:1014C000040F91F840F00CFA05F562EA05021CBF22
:1014D00063EA050362464FF00004A9E7000000003C
:1014E00001F0FF01102A2BDB10F0070F08D010F8D5
:1014F000013B013A8B422DD010F0070F42B3F6D1D9
:10150000F0B441EA012141EA014122F007047FF0F1
:1015100000070023F0E80256083C85EA010586EA48
:10152000010685FA47F5A3FA87F586FA47F6A5FA84
:1015300087F68EB9EED1F0BC01F0FF0102F0070290
:1015400032B110F8013B013A83EA010313B1F8D13B
:101550000020704701387047002D06BF354603381C
:10156000073815F0010F07D1013015F4807F02BF55
:10157000013015F4C03F0130F0BC0138704700BFA6
:10158000844641EA000313F003036DD1403A41D38E
:1015900051F8043B40F8043B51F8043B40F8043B4D
:1015A00051F8043B40F8043B51F8043B40F8043B3D
:1015B00051F8043B40F8043B51F8043B40F8043B2D
:1015C00051F8043B40F8043B51F8043B40F8043B1D
:1015D00051F8043B40F8043B51F8043B40F8043B0D
:1015E00051F8043B40F8043B51F8043B40F8043BFD
:1015F00051F8043B40F8043B51F8043B40F8043BED
:1016000051F8043B40F8043B51F8043B40F8043BDC
:10161000403ABDD2303211D351F8043B40F8043B7C
:1016200051F8043B40F8043B51F8043B40F8043BBC
:1016300051F8043B40F8043B103AEDD20C3205D38C
:1016400051F8043B40F8043B043AF9D2043208D084
:10165000D2071CBF11F8013B00F8013B01D30B88F6
:1016600003806046704700BF082A13D38B078DD0D4
:1016700010F003038AD0C3F10403D21ADB071CBFA6
:1016800011F8013B00F8013B80D331F8023B20F810
:10169000023B7BE7043AD9D3013A11F8013B00F849
:1016A000013BF9D20B7803704B7843708B788370D1
:1016B000604670474FF0FF3C06E000BF4FF0010C62
:1016C00002E000BF4FF0010C4DF804CD4FEA410C91
:1016D0007FEA6C5C4FEA430C18BF7FEA6C5C1BD05E
:1016E00001B050EA410C0CBF52EA430C91EA030FDF
:1016F00002BF90EA020F0020704710F1000F91EA3C
:10170000030F58BF994208BF90422CBFD8176FEA09
:10171000E37040F0010070474FEA410C7FEA6C5CD7
:1017200002D150EA013C07D14FEA430C7FEA6C5CDE
:10173000D6D152EA033CD3D05DF8040B704700BF0A
:101740008446104662468C461946634600E000BF58
:1017500001B5FFF7B7FF002848BF10F1000F01BD2A
:101760004DF808EDFFF7F4FF0CBF012000205DF8F5
:1017700008FB00BF4DF808EDFFF7EAFF34BF01207A
:1017800000205DF808FB00BF4DF808EDFFF7E0FF13
:1017900094BF012000205DF808FB00BF4DF808ED64
:1017A000FFF7CEFF94BF012000205DF808FB00BFCB
:1017B0004DF808EDFFF7C4FF34BF012000205DF8AD
:1017C00008FB00BF4FEA410C7FEA6C5C02D150EA93
:1017D000013C0AD14FEA430C7FEA6C5C02D152EA29
:1017E000033C02D14FF0000070474FF001007047FA
:1017F00000B587B00A4600238DF814304FF47A7391
:1018000002930123019305A900910146034802F0C8
:1018100043FC9DF8140007B05DF804FB280B002082
:1018200000B585B00023ADF80C308DF80C108DF8A4
:101830000D2064230093022303AA0146024802F00C
:101840006FFB05B05DF804FB280B002010B50446C3
:101850004FF07C51FFF728FA01462346094CA4EBD0
:1018600063042046FFF720FA01462046FFF71CFAE2
:1018700001464FF07F50FFF70DF901462046FFF774
:1018800013FA10BDDF59375F2DE9F04F95B0009086
:10189000019102921C46DDF878B0DDF87CA0A44BE3
:1018A000D3F8008041464046FFF7FEF90F90A14B68
:1018B0001F6839464046FFF7F7F905909E4B1E68B2
:1018C00031464046FFF7F0F906909C4B1D682946CB
:1018D0004046FFF7E9F9079039463846FFF7E4F943
:1018E000039031463846FFF7DFF9804629463846EF
:1018F000FFF7DAF9089031463046FFF7D5F981460F
:1019000029463046FFF7D0F90A9029462846FFF7C6
:10191000CBF9074621462046FFF7C6F9054659464A
:101920005846FFF7C1F901462846FFF7B5F80546C6
:1019300051465046FFF7B8F901462846FFF7ACF884
:10194000FFF784FF054601462046FFF7ADF90C90EE
:1019500029465846FFF7A8F90D9029465046FFF74B
:10196000A3F90E9020990846FFF79EF904462199A5
:101970000846FFF799F901462046FFF78DF804461F
:1019800022990846FFF790F901462046FFF784F8B0
:10199000FFF75CFF044601462098FFF785F9834670
:1019A00021462198FFF780F9824621462298FFF7C9
:1019B0007BF9064659465846FFF76EF804464946F5
:1019C0004FF07C50FFF766F804973946FFF762F84E
:1019D00001462046FFF768F9054651465046FFF795
:1019E0005BF8074607994046FFF754F81190014607
:1019F0003846FFF759F901462846FFF74DF80546E6
:101A0000314610963046FFF747F806460899069883
:101A1000FFF742F8129001463046FFF745F90146BC
:101A20002846FFF739F8139041460798FFF734F836
:101A300001462046FFF738F9054603994FF07C50E0
:101A4000FFF728F807900499FFF724F80146384675
:101A5000FFF72AF901462846FFF71EF805460599C3
:101A60000A98FFF717F801463046FFF71DF90146BF
:101A70002846FFF711F8804606990898FFF70AF8FC
:101A8000054601462046FFF70FF906900A9905988A
:101A9000FFF702F8044601463846FFF705F901460C
:101AA0000698FEF7F9FF074649460798FEF7F2FF4A
:101AB00001463046FFF7F8F801463846FEF7ECFFDE
:101AC0000746139B19461846FFF7EEF806464146AF
:101AD0004046FFF7E9F801463046FEF7DDFFFEF726
:101AE000F3FC0DF0E5FCFEF781FF0646294628468B
:101AF000FEF7D2FF059021462046FEF7CDFF069067
:101B000003990F98FEF7C6FF4946FEF7C3FF0499F5
:101B1000FEF7C2FF079031463046FEF7BDFF06468E
:101B2000FEF7D2FCCDE908014846FEF7CDFC07E000
:101B30006C0A0020700A0020740A0020780A002035
:101B400080468946CDE90A8902460B460020B34902
:101B5000FEF75AFB804689460498FEF7B5FC02461C
:101B60000B4640464946FEF74FFB02460B46DDE971
:101B70000801FEF701FD8046894639463846FEF7E2
:101B80008BFF074601462846FFF78EF8FEF79CFCC0
:101B900002460B4640464946FEF738FBFEF726FF55
:101BA000054631461198FFF77FF8804639462046B2
:101BB000FFF77AF801464046FEF76EFF04463146CD
:101BC0001298FFF771F8FEF77FFC80468946384689
:101BD000FEF77AFC06460F460398FEF775FC0246B0
:101BE0000B4600208D49FEF70FFBDDE90A23FEF7C7
:101BF0000BFB02460B4630463946FEF7BDFC02465B
:101C00000B4640464946FEF701FBFEF7EFFE06464F
:101C100007990D98FFF748F8074606990E98FFF7C1
:101C200043F801463846FEF735FF07463146504631
:101C3000FFF73AF880462146DDF840904846FFF726
:101C400033F801464046FEF725FF01463846FEF7C9
:101C500023FF074605990E98FFF726F88046079957
:101C60000C98FFF721F801464046FEF713FF804627
:101C700029464846FFF718F8814631465846FFF78F
:101C800013F801464846FEF705FF01464046FEF7B9
:101C900003FF064606990C98FFF706F8804605995B
:101CA0000D98FFF701F801464046FEF7F3FE804627
:101CB00021465846FEF7F8FF044629465046FEF7EF
:101CC000F3FF01462046FEF7E5FE01464046FEF7DB
:101CD000E3FE044600213846FFF77AF9002844D194
:101CE00000213046FFF774F900283ED1002120463C
:101CF000FFF76EF9002838D149493846FEF7D4FF7E
:101D00000021FEF7C9FE814645493046FEF7CCFF6B
:101D10000021FEF7C1FE804641492046FEF7C4FF80
:101D20000021FEF7B9FE05463E493846FEF7BCFFE6
:101D30000099FEF7B1FE4946FEF7AEFE0090394924
:101D40003046FEF7B1FF0199FEF7A6FE4146FEF7C9
:101D5000A3FE019033492046FEF7A6FF0299FEF745
:101D60009BFE2946FEF798FE0290DFF8BCA0DAF849
:101D7000008008F100400099FEF796FF0446DFF866
:101D8000AC90D9F8006001993046FEF78DFF01460E
:101D90002046FEF77FFE0446254B1F680299384611
:101DA000FEF782FF01462046FEF774FE1C49FEF74F
:101DB0007BFFDFF880B0DBF80010FEF76DFE054614
:101DC000CBF800000099FEF76FFF044602993046F9
:101DD000FEF76AFF01462046FEF75EFE04460199C3
:101DE0003846FEF761FF01462046FEF753FE0C49D8
:101DF000FEF75AFF01464046FEF74EFE0446CAF87B
:101E0000000001992846FEF74FFF804602992046C0
:101E1000FEF74AFF014640460EE000BF0000E03FEB
:101E2000A69BC43C00009040700A0020740A002069
:101E3000780A00206C0A0020FEF72CFE80460099EC
:101E40003846FEF731FF01464046FEF725FE33498E
:101E5000FEF72AFF01463046FEF71EFE0646C9F889
:101E6000000002992846FEF71FFF80460199204690
:101E7000FEF71AFF01464046FEF70EFE8046009927
:101E80003046FEF711FF01464046FEF703FE2349A8
:101E9000FEF70AFF01463846FEF7FEFD0746204BD7
:101EA000186029462846FEF7FFFE80462146204658
:101EB000FEF7FAFE01464046FEF7EEFD804631464B
:101EC0003046FEF7F1FE01464046FEF7E5FD80464E
:101ED00039463846FEF7E8FE01464046FEF7DCFD8F
:101EE000FFF7B4FC804601462846FEF7DDFECBF83E
:101EF000000041462046FEF7D7FECAF800004146E2
:101F00003046FEF7D1FEC9F8000041463846FEF7DC
:101F1000CBFE034B186015B0BDE8F08FA69BC43C08
:101F2000780A002008B50021D020FFF761FCEA28DC
:101F300001D0002008BD0120FCE7F8B507460C469B
:101F400015461E4630227F21D020FFF769FC3A4615
:101F50000321D020FFF764FC22460421D020FFF7A4
:101F60005FFC45F080020521D020FFF759FC0022DC
:101F70007F21D020FFF754FC0321D020FFF738FC4D
:101F8000044640F02002D2B20321D020FFF748FCE3
:101F9000052001F04BFB04F0DF020321D020FFF706
:101FA0003FFC002408E004F13B01C9B2D020FFF758
:101FB0001FFC30550134E4B2AC42F4D330227F210F
:101FC000D020FFF72DFC0521D020FFF711FC0246A1
:101FD0000521D020FFF724FC00227F21D020FFF72D
:101FE0001FFCF8BD70B506460D46144630227F2111
:101FF000D020FFF715FC32460721D020FFF710FC58
:102000002A460821D020FFF70BFC22460A21D020C7
:10201000FFF706FC81220921D020FFF701FC0022F6
:102020007F21D020FFF7FCFB0321D020FFF7E0FB4E
:10203000044640F02002D2B20321D020FFF7F0FB8B
:10204000052001F0F3FA04F0DF020321D020FFF7AE
:10205000E7FB30227F21D020FFF7E2FB0521D020D3
:10206000FFF7C6FB02460521D020FFF7D9FB00226F
:102070007F21D020FFF7D4FB70BD00B590F800C0E1
:102080000CF1010E80F800E021F81C20027802F02B
:102090000702027000221A6006E031F912C01868C7
:1020A000604418600132D2B2072AF6D91A68D210F9
:1020B0001A605DF804FB00002DE9F04188B080460D
:1020C0000F46164600240494ADF81440019402947F
:1020D0000394304A1388013313803421D020FFF752
:1020E00087FB05468DF818003321D020FFF780FBD1
:1020F0008DF8190045EA0025ADF810503621D020A2
:10210000FFF776FB05468DF818003521D020FFF744
:102110006FFB8DF8190045EA0025ADF81250382103
:10212000D020FFF765FB05468DF818003721D02039
:10213000FFF75EFB8DF8190045EA0025ADF8145055
:1021400015E0154D04EBC40105EB410108AB03EBB1
:10215000440204EBC40001AB03EB840332F9102CFE
:10216000023105EB4000FFF788FF0134E4B2022C96
:10217000E7D90A4B1988019A521AA8F80020598801
:10218000029A521A3A809A88039B9B1A338008B0AD
:10219000BDE8F0817C0A0020F00A0020640A0020DB
:1021A0002DE9F04186B080460F4616460024039480
:1021B000ADF810400094019402942E21D020FFF736
:1021C00017FB05468DF814002D21D020FFF710FBDA
:1021D0008DF8150045EA0025ADF80C503021D020CF
:1021E000FFF706FB05468DF814002F21D020FFF7DE
:1021F000FFFA8DF8150045EA0025ADF80E503221A2
:10220000D020FFF7F5FA05468DF814003121D020D3
:10221000FFF7EEFA8DF8150045EA0025ADF81050ED
:1022200014E0104D04EBC40105EB410106AB03EBD8
:10223000440204EBC4000DEB840332F90C2C023190
:1022400005EB4000FFF719FF0134E4B2022CE8D996
:10225000009BA8F80030019B3B80029B338006B0B6
:10226000BDE8F081B80A0020F0B589B007460E46F7
:10227000154600230493ADF81430019302930393A1
:10228000142484B10A2001F0D1F906AB01221021F7
:102290008C20FFF752FE9DF8183013F0010F02D189
:1022A000013CE4B2EDE70CB9002434E006AB0622B1
:1022B00011218C20FFF741FE9DF819209DF8183060
:1022C00043EA0223ADF810309DF81B209DF81A3028
:1022D00043EA0223ADF812309DF81D209DF81C3012
:1022E00043EA0223ADF81430DEE7114804EBC401E1
:1022F00000EB410108AB03EB440204EBC40C01AB5F
:1023000003EB840332F9102C023100EB4C00FFF791
:10231000B4FE0134E4B2022CE7D9019B3B80029B5E
:102320005B423380039B5B422B8009B0F0BD00BF52
:10233000800A0020000000002DE9F04F9FB00890B7
:102340000A910B929B4612AA0DF1460111A8FFF7C4
:1023500027FF14AA0DF14E0113A8FFF7ADFE10AA36
:102360000DF13E010FA8FFF77FFFBDF94C00FEF70E
:1023700099F8A7A3D3E90023FEF728FAFEF736FB66
:1023800006901590BDF94E00FEF78CF8A0A3D3E996
:102390000023FEF71BFAFEF729FB06461690BDF94F
:1023A0005000FEF77FF89AA3D3E90023FEF70EFA58
:1023B000FEF71CFB05461790BDF94400FEF720FC14
:1023C00009901890BDF94600FEF71AFC04461990D2
:1023D000BDF94800FEF714FC07461A90BDF93C0011
:1023E000FEF70EFC82461B90BDF93E00FEF708FC8E
:1023F00081461C90BDF94000FEF702FC80461D900E
:102400000698FEF761F884A3D3E90023FEF7B4F839
:10241000CDE906013046FEF757F87FA3D3E9002344
:10242000FEF7AAF8CDE90C012846FEF74DF87AA38D
:10243000D3E90023FEF7A0F8FEF7D8FA0646DDE957
:102440000C01FEF7D3FA0546DDE90601FEF7CEFAE8
:10245000CDF81080CDF80C90CDF808A0019700942D
:10246000099B32462946FFF70FFA6F4F4FF0404164
:102470003868FEF719FC6D4C2168FEF715FC8046A4
:102480006B4D28680146FEF707FB6A4E3168FEF780
:102490000BFC01464046FEF7FFFAFEF715F80CF07C
:1024A0006FFF5FA3D3E90023FEF766F8FEF79EFAFD
:1024B000DDF82080C8F80400D6F800904946484668
:1024C000FEF7EAFA06902168FEF7EEFB82462868DE
:1024D0000146FEF7E1FAD7F800804146FEF7E4FB3B
:1024E00001465046FEF7D8FA82464FF0404140463A
:1024F000FEF7DAFB01464046FEF7D6FB804606991A
:102500004846FEF7D1FB01464046FEF7C3FA4FF0BE
:102510007E51FEF7C1FAFDF7D7FF80468946504647
:10252000FDF7D2FF42464B460CF052FF3CA3D3E9E5
:102530000023FEF721F8FEF759FADDF82080C8F8ED
:1025400008004FF040413868FEF7AEFB3668314670
:10255000FEF7AAFB074628680146FEF79DFA2468A5
:102560002146FEF7A1FB01463846FEF793FA0746DF
:1025700031463046FEF790FA01463046FEF794FBAE
:10258000054621462046FEF787FA01462046FEF71B
:102590008BFB01462846FEF77FFA4FF07E51FEF78F
:1025A00079FAFDF791FF04460D463846FDF78CFF9A
:1025B00022462B460CF00CFF19A3D3E90023FDF7AC
:1025C000DBFFFEF713FAC8F80000BDF94C300A999A
:1025D0000B80BDF94E304B80BDF950308B80BDF97A
:1025E00044300B9A1380BDF946305380BDF9483012
:1025F0009380BDF93C30ABF80030BDF93E30ABF80C
:102600000230BDF94030ABF804301FB0BDE8F08FA8
:102610006666666666664040EC51B81E85EB913F83
:102620006666666666A64C40700A0020780A00203E
:102630006C0A0020740A0020F0B583B00024ADF8C5
:102640000640ADF80440ADF8024025462646274630
:1026500014E00DF1020201A90DF10600FFF72CFDB7
:10266000BDF906301F44BDF904301E44BDF90230E7
:102670001D440A2000F0DAFF0134E4B21F2CE8D92F
:102680007F11044B1F8076115E806D119D8003B019
:10269000F0BD00BF640A002000B583B001AB022288
:1026A00000218C20FFF749FC9DF80430482B03D013
:1026B000002003B05DF804FB9DF80530092B01D024
:1026C0000020F6E70120F4E708B500227F21D020A2
:1026D000FFF7A6F880220621D020FFF7A1F80A20F4
:1026E00000F0A4FF01220621D020FFF799F8202254
:1026F0007F21D020FFF794F807220021D020FFF798
:102700008FF835220121D020FFF78AF80722112106
:10271000D020FFF785F831221421D020FFF780F870
:1027200000227F21D020FFF77BF8642000F07EFF9D
:10273000FFF782FFFFF7B0FF042231210C20FFF7E3
:1027400051FC08BD08B5D021EE20FFF751F85828FC
:1027500001D0002008BD0120FCE7000038B5882129
:10276000EE20FFF745F804468921EE20FFF740F8F8
:1027700044EA0020434C20808A21EE20FFF738F8FD
:1027800005468B21EE20FFF733F845EA00256580EA
:102790008C21EE20FFF72CF805468D21EE20FFF767
:1027A00027F845EA0025A5808E21EE20FFF720F8C6
:1027B00005468F21EE20FFF71BF845EA0025E5804E
:1027C0009021EE20FFF714F805469121EE20FFF747
:1027D0000FF845EA002525819221EE20FFF708F841
:1027E00005469321EE20FFF703F845EA00256581B1
:1027F0009421EE20FEF7FCFF05469521EE20FEF722
:10280000F7FF45EA0025A5819621EE20FEF7F0FFAF
:1028100005469721EE20FEF7EBFF45EA0025E5810E
:102820009821EE20FEF7E4FF05469921EE20FEF701
:10283000DFFF45EA002525829A21EE20FEF7D8FF2A
:1028400005469B21EE20FEF7D3FF45EA0025658271
:102850009C21EE20FEF7CCFF05469D21EE20FEF7E1
:10286000C7FF45EA0025A5829E21EE20FEF7C0FFA6
:1028700005469F21EE20FEF7BBFF45EA0025E582D5
:1028800038BD00BF480A002008B5FF22F421EE2021
:10289000FEF7C6FF1422F521EE20FEF7C1FFFFF779
:1028A0005DFF08BD38B505460C46FFF73BFB012828
:1028B00013D000232B70FFF745FF012812D000230F
:1028C00023700B4B4FF07E521A600023094A1360AD
:1028D000094A1360094A136038BD01232B70FFF7C2
:1028E000F3FEE8E702232370FFF7CEFFE9E700BF1E
:1028F0006C0A0020700A0020740A0020780A002068
:1029000038B5C2104FEAE07C1D4C23880021DD1849
:102910004941521B6CEB0105B4F902E04FEAEE713C
:1029200002FB01F10EFB0511A2FB0E2E7144D20A2F
:1029300042EA41520011C31A6CF1000C03FB0CFC7B
:10294000A3FB033101EB4C011B0B43EA01534FEA9C
:10295000213CB4F90400C11703FB01F100FB0C1189
:10296000A3FB003001449B0B43EA81431344A36162
:1029700003EB830303F180000012FEF741F938BD39
:10298000480A00202DE9F047674EB369DA17B3F51E
:10299000FA3C42F1FF320CFB02FEACFB0C9A0AEB54
:1029A0004E0AB6F91040E51709FB05F504FB0A517C
:1029B000A9FB04450D44B6F90E70FB1707FB02F89E
:1029C0000CFB0388A7FB0C7398444FEA484848EA7D
:1029D000D7387F043C1945EB0805B6F90C1005EB18
:1029E000C105B6F90A10CB1709FB03F301FB0A3343
:1029F000A9FB011903EB090E090A41EA0E61B6F9B8
:102A00000870FB1707FB02F20CFB0323A7FB0C7CEF
:102A100063441B0343EA17534FEA073C11EB0C0CCA
:102A200043EB2E2303F50043F288ACFB02C102FB0B
:102A300003135F10DE1756EA630372D0FDF732FD11
:102A400002460B4600203949FDF7DEFBFEF730FB5E
:102A5000C90741EA5001C007041B61EB05052319B2
:102A600045EB05011B1945EB01018A0142EA93621E
:102A700098011B1841EB0201890041EA93719B0008
:102A80001B1945EB0101890041EA93719800001977
:102A90003A46334645EB0101FEF7F2FA8446224EF0
:102AA000B6F91650EA17430B43EAC1434F0B05FB37
:102AB00007F403FB0244A5FB03252C4403FB04F4A9
:102AC00002FB0747A3FB02357C195A0E42EAC412E7
:102AD000B6F91430DF1703FB01F507FB0055A3FB24
:102AE00000032B44C00C40EA433012EB0C0241EBD4
:102AF0005464801844EBD344000A40EA0460B6F9F9
:102B00001230D917090141EA13711B01C01841EBBA
:102B10001421FEF783F84FF06E51FEF7C5F8BDE8BB
:102B2000F0870020FBE700BF480A0020000030418A
:102B3000F8B507460E46FC21EE20FEF759FE044686
:102B4000FB21EE20FEF754FE0546FA21EE20FEF7AB
:102B50004FFE45EA002544EA05242011FFF7D0FE88
:102B60003860F921EE20FEF743FE0446F821EE20FE
:102B7000FEF73EFE0546F721EE20FEF739FE45EA58
:102B8000002044EA00200011FFF7FCFE3060F8BD91
:102B900000B590F800C00CF1010E80F800E041F89B
:102BA0002C20027802F00702027000221A6006E070
:102BB000186851F822C0604418600132D2B2072A66
:102BC000F6D91A68D2101A605DF804FB0000000004
:102BD00070B504460E46144B1868FEF711F805460A
:102BE0003046FEF70DF82946FEF712F9FDF76CFCAA
:102BF00009A3D3E900230CF0EDFB02460B460020AD
:102C00000A49FDF701FB06A3D3E90023FDF7B4FC55
:102C1000FDF7C4FE206070BDEBE2361AC05BC83F12
:102C2000000000001AE95041000000200000F03FC1
:102C3000F0B585B006460D46174603A902A8FFF772
:102C400077FF0398FEF7F6F902460F4C2B46211D3D
:102C50002046FFF79DFF296801A8FFF7B9FF3B4613
:102C6000019A04F1280104F12400FFF791FF029872
:102C7000FEF7E0F90246334604F14C0104F1480046
:102C8000FFF786FF05B0F0BDDC090020F0B58BB082
:102C900000240594069407940894099400942A4B00
:102CA0001A6B42F004021A631A6B02F004020092DB
:102CB000009A01941A6B42F080021A631A6B02F0B8
:102CC00080020192019A02941A6B42F002021A6386
:102CD0001A6B02F002020292029A03941A6B42F0FB
:102CE00008021A631A6B02F008020392039A049412
:102CF0001A6B42F001021A631B6B03F00103049389
:102D0000049B124F22460121384600F0E1FD104E8F
:102D1000224647F22A01304600F0DAFD01250595EA
:102D200006950794089405A9384600F0F1FC47F28F
:102D30002A03059306950794089405A9304600F0E8
:102D4000E7FC0BB0F0BD00BF0038024000040240B9
:102D5000000C024008B50B480B4B03600B4B436063
:102D600000238360C3604FF480420261436183614A
:102D7000C361036200F0F6FF00B908BD00F040F83F
:102D8000FBE700BF280B002000540040A086010094
:102D900030B589B0002303930493059306930793FA
:102DA0000268144B9A4201D009B030BD002501954C
:102DB000114C236B43F002032363236B03F00203E4
:102DC0000193019B4FF41073039312230493032385
:102DD00006930423079303A9084800F099FC029581
:102DE000236C43F400132364236C03F40013029355
:102DF000029BD9E700540040003802400004024022
:102E000008B572B601224FF40051064800F060FD8B
:102E10000121054800F062FD4FF4FA7000F006FC55
:102E2000F0E700BF000C02400004024000B595B07E
:102E30003022002108A804F04BFD002303930493E3
:102E400005930693079301931E4A116C41F080513C
:102E50001164126C02F080520192019A02931A4A94
:102E6000116841F440411160126802F4404202923C
:102E7000029A0222089201210B9110210C910E92CC
:102E80000F93082310936423119312920523139335
:102E900008A801F03DFB88B90F2303930223049394
:102EA000002305934FF4805206920793032103A851
:102EB00001F07CFD20B915B05DF804FBFFF7A0FF21
:102EC000FFF79EFF003802400070004070B5B0B0C0
:102ED00000262596249623960DF1BE010DF1BF0024
:102EE000FFF7E0FC00F076FBFFF7A0FFFFF7CEFE58
:102EF00000F0B8FA00F0B8F903F0D0F8FFF72AFFB5
:102F0000C34C32460821204600F0E2FC0122022197
:102F1000204600F0DDFCC0238DF884308DF88560FC
:102F200005238DF886308DF887608DF888608DF8E0
:102F3000896061238DF88A3017258DF88B504FF406
:102F4000FA73082221A9B34802F0BBFC32460821DB
:102F5000204600F0BDFC32460221204600F0B8FCBD
:102F60008DF87C608DF87D608DF87E50AA238DF8F9
:102F70007F30BB238DF88030CC238DF8813014ACAA
:102F8000A54D0FCD0FC40FCD0FC495E8030044F835
:102F9000040B21803246A149A14804F08DF908B103
:102FA000FFF72EFF9A4C01224FF48041204600F09B
:102FB0008FFC4FF47A7000F039FB00224FF480410F
:102FC000204600F085FC642000F030FB0A22954981
:102FD000954804F09FF908B1FFF712FF8C4C0122CD
:102FE0004FF48041204600F073FC4FF47A7000F0FB
:102FF0001DFB00224FF48041204600F069FC642054
:1030000000F014FB1EAB262214A9874804F09CFA9A
:1030100006461E9B03B108B1FFF7F2FE7C4C01226D
:103020004FF48041204600F053FC4FF47A7000F0DA
:10303000FDFA00224FF48041204600F049FC642054
:1030400000F0F4FA784804F0D3FB002312931393B2
:10305000764B1193764B1B68ADF840301B0C8DF806
:1030600042300AAC734D0FCD0FC495E8030044F80D
:10307000040B24F8021B090C21706F4B06AC0FCB1C
:1030800084E80F004FF47A7000F0D0FA8023172202
:103090000AA9604802F015FC3546012410E02246DA
:1030A000664912A804F0D0FC8023082212A95948CE
:1030B00002F007FC0F2D15D00135EDB20134E4B25A
:1030C00014F0800F16D10523032261005C4801F043
:1030D00055F90028E3D08023042211A94D4802F0BD
:1030E000F0FBE7E78023032210A94A4802F0E9FB3E
:1030F0003546E3E78023102206A9464802F0E1FBAB
:1031000026AB28AA2AA92CA8FFF716F923AA25A9D5
:1031100024A8FFF78DFD4B4804F08EFC2E98FDF798
:10312000D3F904460D462C98FDF7CEF9CDE90201FE
:103130002D98FDF7C9F9CDE9000122462B464248FA
:1031400004F018FCBDF9A430BDF9A220BDF9A0100F
:103150003E4804F00FFCBDF9AC30BDF9AA20BDF922
:10316000A8103B4804F006FCBDF99C30BDF99A203C
:10317000BDF99810374804F0FDFB2598FDF740FD98
:103180003549FDF745FE04462398FDF739FD3249E0
:10319000FDF73EFE06462046FDF796F904460D462D
:1031A0003046FDF791F9CDE9000122462B462B4828
:1031B00004F0E0FB2498FDF723FD2749FDF728FEE6
:1031C000FDF782F902460B46254804F0D3FB642044
:1031D00000F02CFA01224FF480510D4800F078FBEA
:1031E000204B93E803000490ADF81410090C8DF8FF
:1031F000161078238DF812306423062204A905489E
:1032000002F05FFB4FF47A7000F010FAE2E700BFC3
:10321000000C0240682C0020840D0108B02C002016
:10322000AC1B0020300C01087C0B0020202E20005D
:10323000C00D0108AC0D0108C40D01083C0C0108CB
:10324000280B0020440C01088C0C0108BC0C010860
:10325000EC0C0108180D01080000C842440D0108DB
:103260006C0D0108D40D0108054B064A1A600022B6
:103270005A609A60DA601A615A619A61704700BFB9
:10328000E02B0020002C0140F0B58BB0002305930B
:10329000069307930893099302682A4B9A4201D038
:1032A0000BB0F0BD0022019203F58633596C41F456
:1032B00000615964596C01F4006101910199029215
:1032C000196B41F002011963196B01F002010291BF
:1032D00002990392196B41F004011963196B01F013
:1032E00004010391039904921A6B42F008021A63D5
:1032F0001B6B03F008030493049B4FF400430593F6
:1033000002260696032508950C24099405A90E4863
:1033100000F0FEF94FF470630593069601270797B6
:103320000895099405A9094800F0F2F904230593CA
:10333000069607970895099405A9054800F0E8F94D
:10334000AEE700BF002C014000040240000802402C
:10335000000C024082B0002100910B4B5A6C42F4E9
:1033600080425A645A6C02F480420092009A0191A1
:103370001A6C42F080521A641B6C03F08053019364
:10338000019B02B0704700BF00380240FEE7FEE735
:10339000FEE7FEE7FEE770477047704708B500F0AC
:1033A00033F908BD0120704708B504F067FA162309
:1033B00003604FF0FF3008BD08B54FF0FF31FFF755
:1033C000F3FFFEE770B50C461646002506E0AFF3A6
:1033D0000080214601F8010B01350C46B542F6DBB1
:1033E000304670BD70B50C461646002504E014F852
:1033F000010BAFF300800135B542F8DB304670BDFC
:103400004FF0FF3070474FF400534B60002070477F
:10341000012070470020704710B503460C4A0D4943
:103420000D48006840B10C4800680344521A9342AA
:1034300006D8094A136010BD0748084C0460F2E73B
:1034400004F01CFA0C2303604FF0FF30F3E700BFD9
:103450000000022000040000642C0020382D002011
:103460007047000008B50A480A4B03604FF4165332
:10347000436000238360C36003610C224261836167
:10348000C36102F0EFF900B908BDFFF7B9FCFBE733
:10349000682C002000100140F0B589B00023039390
:1034A0000493059306930793026803F1804303F5A1
:1034B00088339A4201D009B0F0BD0024009403F58E
:1034C00094335A6C42F010025A645A6C02F01002A3
:1034D0000092009A01941A6B42F001021A631A6B6F
:1034E00002F001020192019A02941A6B42F0020268
:1034F0001A631B6B03F002030293029B4FF4004319
:10350000039302270497032606960725079503A928
:10351000064800F0FDF8802303930497059406966F
:10352000079503A9024800F0F3F8C4E70000024041
:1035300000040240DFF834D00D480E490E4A002343
:1035400002E0D458C4500433C4188C42F9D30B4A57
:103550000B4C002301E013600432A242FBD3FFF7BF
:103560007FFF04F091F9FFF7B1FC704700000220E3
:1035700000000020C00900203C130108C009002001
:10358000342D0020FEE7000010B504460E4B1878DD
:103590004FF47A73B3FBF0F30C4A1068B0FBF3F00E
:1035A00000F0A2F868B90F2C01D901200AE000222E
:1035B00021464FF0FF3000F05FF8054B1C60002003
:1035C00000E0012010BD00BF080000200400002022
:1035D0000C00002008B50B4B1A6842F400721A6008
:1035E0001A6842F480621A601A6842F480721A60A3
:1035F000032000F02FF80F20FFF7C6FFFFF7AAFE09
:10360000002008BD003C0240034A1168034B1B78B0
:103610000B441360704700BFAC2C00200800002052
:10362000014B1868704700BFAC2C002038B5044629
:10363000FFF7F6FF0546B4F1FF3F02D0044B1B78BD
:103640001C44FFF7EDFF401BA042FAD338BD00BF7A
:1036500008000020074AD36823F4E0631B041B0C16
:10366000000200F4E060034343F0BF6343F400331F
:10367000D360704700ED00E000B5194BDB68C3F381
:103680000223C3F1070CBCF1040F28BF4FF0040C58
:1036900003F1040EBEF1060F18D9033B4FF0FF3EB5
:1036A0000EFA0CFC21EA0C0199400EFA03F322EA0F
:1036B0000303194300280BDB0901C9B200F1604084
:1036C00000F5614080F800135DF804FB0023E5E796
:1036D00000F00F000901C9B2024B1954F4E700BF12
:1036E00000ED00E014ED00E00138B0F1807F0BD276
:1036F0004FF0E0235861054AF02182F823100020A2
:10370000986107221A6170470120704700ED00E0C0
:1037100000230F2B00F2D28070B582B060E0856884
:103720005E000324B44025EA0405CC68B4402C4371
:103730008460456825EA02054C68C4F300129A408B
:103740002A4342605AE0DC08083450F8246003F051
:10375000070295000F22AA4026EA020E0A69AA4033
:1037600042EA0E0240F824205CE0042200E000223D
:1037700002FA0EF22A430234514D45F82420514AF0
:1037800094686FEA0C0224EA0C054E6816F4801F58
:1037900001D04CEA04054B4CA560E46802EA04053C
:1037A0004E6816F4001F01D04CEA0405454CE56054
:1037B000646802EA04054E6816F4003F01D04CEA42
:1037C0000405404C6560246822404D6815F4803F34
:1037D00001D04CEA04023B4C226001330F2B6BD822
:1037E00001229A400C6804EA020C32EA0404F4D183
:1037F0004C6804F00304013C012C90D94A6802F0A3
:103800000302032A09D0C4685D000322AA4024EA07
:1038100002048A68AA402243C2604A6802F0030296
:10382000022A90D004684FEA430E032202FA0EF2F5
:1038300024EA02044A6802F0030202FA0EF222436A
:1038400002604A6812F4403FC7D0002201921E4A2B
:10385000546C44F480445464526C02F480420192EB
:10386000019A9C08A51C164A52F8255003F0030241
:103870004FEA820E0F2202FA0EF225EA0205134ADF
:1038800090423FF474AF02F5806290420ED002F590
:10389000806290420CD002F5806290420AD002F51C
:1038A000806290423FF461AF072261E701225FE747
:1038B00002225DE703225BE702B070BD704700BFE4
:1038C00000380140003C0140003802400000024046
:1038D0000AB181617047090481617047436901EA57
:1038E000030221EA030141EA024181617047036852
:1038F0005A6912F4806F01D1002070476FF4806222
:103900005A6100230363202280F83D2080F83E3076
:10391000026C42F00402026480F83C3001207047DF
:103920002DE9F04107460D4690461E4624E0FFF77C
:1039300077FE069BC01AB04200D8EEB900233B6365
:10394000202287F83D2087F83E303A6C42F0200272
:103950003A6487F83C3001201EE03B689C6925EA08
:10396000040C1FFA8CFCBCFA8CFC4FEA5C1CE04592
:1039700011D1B6F1FF3FDAD1C5F30743012BECD1EA
:103980003B685B6925EA030C1FFA8CFCBCFA8CFCD3
:103990004FEA5C1CEBE70020BDE8F0812DE9F04127
:1039A00005460E46174698463DE01A6842F40072F6
:1039B0001A602B686FF480625A6100232B63202207
:1039C00085F83D2085F83E302A6C42F004022A64D6
:1039D00085F83C30012034E0FFF722FEA0EB080020
:1039E000B84200D8FFB900232B63202285F83D2080
:1039F00085F83E302A6C42F020022A6485F83C307B
:103A000001201EE02B689C6926EA0404A4B2003C55
:103A100018BF0124A4B12B685A6912F4806FC4D175
:103A2000B7F1FF3FD8D1C6F30743012BEAD12B688A
:103A30005C6926EA0404A4B2003C18BF0124E9E74B
:103A40000020BDE8F0810000F0B583B004460D46CB
:103A500016461F46C36A082B0DD0012B0BD013F559
:103A6000803F08D0036B122B0AD10268136843F41D
:103A70008073136004E02268136843F4807313605A
:103A80000097334600224FF001112046FFF748FF10
:103A900080B92369B3F5804F16D1236805F0FE0580
:103AA0001D613B46324613492046FFF777FFF8B9C0
:103AB00003B0F0BD23681B6813F4807F02D04FF47D
:103AC000007323640320F3E7EB11226803F006037D
:103AD00043F0F00313613B46324607492046FFF7A7
:103AE0005DFF18B92368EDB21D61DAE70120DFE759
:103AF0000120DDE7020001000800010070B5044666
:103B00000D46164623685B6913F0800F1CD12046D2
:103B1000FFF7EDFED0B9B5F1FF3FF3D0FFF780FD21
:103B2000801BA84201D8002DECD100232363202262
:103B300084F83D2084F83E30226C42F0200222645A
:103B400084F83C30012000E0002070BD0120FCE73B
:103B50002DE9F04784B004460D46164699460C9F61
:103B6000DDF834800268136843F4806313600368EF
:103B7000196841F480711960CDF800803B4600223D
:103B80004FF00111FFF7CCFE70B95FFA85FA236898
:103B900005F0FE051D6143463A4641492046FFF7C0
:103BA000FDFE68B1012008E023681B6813F4807FE4
:103BB00002D04FF400732364032004B0BDE8F08703
:103BC0000023039323685A6903929B690393039B21
:103BD000424639462046FFF791FF80B9B9F1010FFF
:103BE00018D12368F6B21E61424639462046FFF7D7
:103BF00085FF68B3236C042B24D00120DDE7236C00
:103C0000042B01D00120D8E72268136843F4007325
:103C10001360F7E72368320A1A61424639462046A4
:103C2000FFF76CFF18B92368F6B21E61DCE7236C5E
:103C3000042B01D00120C0E72268136843F400730D
:103C40001360F7E72268136843F400731360D4E746
:103C50002268136843F480731360CDF800803B46FC
:103C600000224FF001112046FFF75AFE68B9226882
:103C70004AF00103136143463A4609492046FFF7DB
:103C80008DFE002899D0012097E723681B6813F464
:103C9000807F02D04FF40073236403208DE700BFC0
:103CA0000200010070B504460D46164623685B69A4
:103CB00013F0040F1CD12046FFF719FED0B9B5F15F
:103CC000FF3FF3D0FFF7ACFC801BA84201D8002DCA
:103CD000ECD100232363202284F83D2084F83E3079
:103CE000226C42F02002226484F83C30012000E083
:103CF000002070BD0120FCE770B505460C46164655
:103D00002B68596911F0400F29D1596911F0100F32
:103D100015D1FFF785FC801BA04201D8002CEFD104
:103D200000232B63202285F83D2085F83E302A6C45
:103D300042F020022A6485F83C30012070BD6FF00B
:103D400010025A6100232B63202285F83D2085F85C
:103D50003E302A6C2A6485F83C300120EEE70020D2
:103D6000ECE70000002800F0CC8070B5044690F825
:103D70003D30002B77D0242384F83D30226813682F
:103D800023F0010313602268136843F400431360B7
:103D90002268136823F40043136000F0BDFE6268DC
:103DA0005A4B9A4264D85A4B98428CBF0023012345
:103DB000002B40F0A8805749A1FB00318B0C2568EF
:103DC0006A6822F03F0242EA91426A6021680A6A08
:103DD00022F03F0266684D4DAE424FD80133134387
:103DE0000B622168CA6922F44F4222F0FF02666822
:103DF000464B9E424CD8431E7600B3FBF6F301338C
:103E000040F6FC70034278D0C3F30B031343CB613D
:103E100021680B6823F0C003E269206A0243134360
:103E20000B6021688B6823F4034323F0FF032269AE
:103E3000E068024313438B602168CB6823F0FF03E3
:103E40006269A06902431343CB602268136843F0A0
:103E50000103136000202064202384F83D30206398
:103E600084F83E0070BD80F83C30FEF791FF82E799
:103E7000294B98428CBF0023012399E74FF4967594
:103E800005FB03F3254DA5FB03539B090133A6E76F
:103E9000A368BBB9451E06EB460CB5FBFCF5013526
:103EA000C5F30B05B5FA85F56D0945BBC3B90138F6
:103EB00006EB4603B0FBF3F30133C3F30B0343F408
:103EC0000043A3E7451E06EB860C0CEB8C0CB5FB00
:103ED000FCF50135C5F30B05B5FA85F56D09E4E789
:103EE000013806EB860303EB8303B0FBF3F30133E6
:103EF000C3F30B0343F4404388E7042386E701231D
:103F000084E7012070470120ACE700BFA0860100D4
:103F10007F841E0083DE1B43FF083D00D34D6210EB
:103F20002DE9F04385B004460F46914698460C9E15
:103F3000FFF776FB054694F83D00C0B2202804D078
:103F40000227384605B0BDE8F08300951923012209
:103F50004F492046FFF7E4FC002840F0928094F897
:103F60003C30012B00F08F80012384F83C30236823
:103F70001A6812F0010F03D11A6842F001021A60A8
:103F80002268136823F400631360212384F83D3012
:103F9000102384F83E3000232364C4F82490A4F84E
:103FA0002A80638D23853B4BE3622B46324639469C
:103FB0002046FFF749FD0746002866D100230393FA
:103FC00023685A6903929B690393039B11E0236C56
:103FD000042B01D00127B4E72268136843F400736F
:103FE0001360F7E72A4631462046FFF75BFE0028BC
:103FF0002ED1238D002B36D02A4631462046FFF79E
:104000007DFD0028E3D1626A236812781A61606A34
:10401000431C6362618D89B2013989B26185238D48
:10402000013B9BB223852268516911F0040FD9D05E
:10403000002BD7D043781361636A01336362638DC9
:104040009BB2013B9BB26385238D013B2385C9E76E
:10405000236C042B01D0012773E72268136843F413
:1040600000731360F7E72268136843F4007313606A
:10407000202384F83D30002384F83E3084F83C301F
:104080005FE702275DE702275BE7012759E700BFEB
:10409000020010000000FFFF2DE9F04387B0044646
:1040A0000F4690469946109EFFF7BAFA054694F8D7
:1040B0003D00C0B2202804D00227384607B0BDE832
:1040C000F08300951923012288492046FFF728FC38
:1040D000002840F0438194F83C30012B00F04081EF
:1040E000012384F83C3023681A6812F0010F03D1D1
:1040F0001A6842F001021A602268136823F4006310
:104100001360222384F83D30402384F83E3000239E
:1041100023640E9B6362BDF83C306385638D238509
:10412000734BE362019500964B4642463946204662
:10413000FFF70EFD0746002840F01481238D5BB980
:10414000029323685A6902929A690292029A1A6843
:1041500042F400721A6075E0012B0AD0022B1AD0CB
:104160000023059323685A6905929B690593059B73
:1041700068E02268136823F48063136000230393CC
:1041800023685A6903929A690392039A1A6842F45F
:1041900000721A6056E02268136823F4806313608B
:1041A0002268136843F400631360002304932368B8
:1041B0005A6904929B690493049B43E02A46314662
:1041C0002046FFF799FD002840F0CE8023681A6949
:1041D000636A1A70636A01336362238D013B23852E
:1041E000638D9BB2013B9BB263852BE00095334608
:1041F000002240492046FFF793FB002840F0B6809C
:104200002268136843F40073136023681A69636AB1
:104210001A70626A531C6362238D013B2385638D90
:104220009BB2013B9BB2638523681B695370636A31
:1042300001336362238D013B2385638D9BB2013B78
:104240009BB26385238D002B7FD0032B54D8012B89
:10425000B4D0022BCAD0009533460022254920460F
:10426000FFF75EFB002840F083802268136823F488
:104270008063136023681A69636A1A70636A013382
:104280006362238D013B2385638D9BB2013B9BB20F
:10429000638500953346002216492046FFF740FB10
:1042A000002867D12268136843F400731360236801
:1042B0001A69636A1A70626A531C6362238D013B38
:1042C0002385638D9BB2013B9BB2638523681B6989
:1042D0005370636A01336362238D013B2385638DD1
:1042E0009BB2013B9BB26385ACE700BF02001000AC
:1042F0000000FFFF040001002A4631462046FFF778
:10430000FBFC002838D123681A69636A1A70626A54
:10431000531C6362238D013B2385638D9BB2013B5C
:104320009BB263852368596911F0040F8AD01B6919
:104330005370636A01336362238D013B2385638D70
:104340009BB2013B9BB263857CE7202384F83D3020
:10435000002384F83E3084F83C30AEE60227ACE619
:104360000227AAE60127A8E60127A6E60127A4E678
:104370000127A2E60127A0E601279EE62DE9F043EA
:1043800085B00446884691461D46FFF749F994F8E2
:104390003D30DBB2202B03D0022005B0BDE8F08316
:1043A000064600901923012257492046FFF7B8FA24
:1043B000002840F0A08094F83C30012B00F09D8054
:1043C000012384F83C3023681A6812F0010F03D1EE
:1043D0001A6842F001021A602268136823F400632D
:1043E0001360242384F83D3000272764474BE362A1
:1043F00040E023681B6813F4807F02D04FF4007301
:1044000023640320C9E7A02384F83D302268536960
:10441000C3F340035269C2F3802294F83DC05FFAAF
:104420008CFCBCF1A00F09D043B93AB9FFF7F8F8FA
:10443000801BA842E7D8002DE8D1E4E7202384F8C8
:104440003D3023685A6912F0020F31D11A6842F4E4
:1044500000721A6023686FF480625A610096192313
:10446000012229492046FFF75BFA002849D101378C
:104470004F4538D22268136843F480731360009666
:104480002B4600224FF001112046FFF749FA002881
:10449000AFD1236808F0FE021A61FFF7C1F80646A3
:1044A00022685369C3F340035269C2F38022B4E720
:1044B0001A6842F400721A600023039323685A6951
:1044C00003929B690393039B0096192301220E49D3
:1044D0002046FFF725FA90B9202384F83D300023C9
:1044E00084F83C3059E7202384F83D30002384F8D9
:1044F0003C30012051E702204FE702204DE7012028
:104500004BE7012049E700BF020010000000FFFF59
:10451000002800F0E08170B582B00446036813F013
:10452000010F3BD09F4B9B6803F00C03042B2CD056
:104530009C4B9B6803F00C03082B21D06368B3F5F8
:10454000803F4FD0B3F5A02F52D0964B1A6822F47B
:1045500080321A601A6822F480221A606368002B85
:1045600050D0FFF75DF805468E4B1B6813F4003FF3
:1045700014D1FFF755F8401B6428F5D90320B1E1A9
:10458000884B5B6813F4800FD8D0864B1B6813F4FC
:10459000003F03D06368002B00F09F81236813F075
:1045A000020F54D07F4B9B6813F00C0F3ED07D4B15
:1045B0009B6803F00C03082B33D0E368002B68D012
:1045C000794B01221A60FFF72BF80546754B1B68E3
:1045D00013F0020F54D1FFF723F8401B0228F5D93E
:1045E00003207FE16F4A136843F480331360B5E71B
:1045F0006C4B1A6842F480221A601A6842F48032C6
:104600001A60ABE7FFF70CF80546664B1B6813F41E
:10461000003FC3D0FFF704F8401B6428F5D90320FE
:1046200060E1604B5B6813F4800FC6D15D4B1B6883
:1046300013F0020F03D0E368012B40F05081594A78
:10464000136823F0F803216943EAC1031360236868
:1046500013F0080F42D063696BB3534B0122C3F8C8
:10466000802EFEF7DDFF05464E4B5B6F13F0020F09
:1046700034D1FEF7D5FF401B0228F5D9032031E1E4
:10468000484A136823F0F803216943EAC103136021
:10469000DDE7454B00221A60FEF7C2FF0546414B9D
:1046A0001B6813F0020FD2D0FEF7BAFF401B02289E
:1046B000F5D9032016E13C4B0022C3F8802EFEF70B
:1046C000AFFF0546374B5B6F13F0020F06D0FEF7C6
:1046D000A7FF401B0228F5D9032003E1236813F04C
:1046E000040F77D02F4B1B6C13F0805F33D1002366
:1046F00001932C4B1A6C42F080521A641B6C03F02D
:1047000080530193019B0125284B1B6813F4807F84
:1047100023D0A368012B34D0052B38D0214B1A6F3E
:1047200022F001021A671A6F22F004021A67A368C6
:10473000002B3DD0FEF774FF06461A4B1B6F13F09B
:10474000020F46D1FEF76CFF801B41F2883398427E
:10475000F3D90320C6E00025D6E7144A136843F4D2
:1047600080731360FEF75CFF0646104B1B6813F462
:10477000807FCED1FEF754FF801B0228F5D903209D
:10478000B0E0084A136F43F001031367CFE7054B0E
:104790001A6F42F004021A671A6F42F001021A6798
:1047A000C5E700BF003802400000474200700040EB
:1047B000FEF736FF0646524B1B6F13F0020F08D070
:1047C000FEF72EFF801B41F288339842F3D9032075
:1047D00088E0EDB9A369002B00F08380484A926815
:1047E00002F00C02082A51D0022B17D0454B0022B0
:1047F0001A66FEF715FF0446414B1B6813F0007F55
:1048000042D0FEF70DFF001B0228F5D9032069E016
:104810003B4A136C23F080531364DBE7394B0022CF
:104820001A66FEF7FDFE0546354B1B6813F0007F48
:1048300006D0FEF7F5FE401B0228F5D9032051E013
:10484000E369226A1343626A43EA8213A26A520846
:10485000013A43EA0243E26A43EA0263284A5360A8
:10486000284B01221A66FEF7DBFE0446244B1B6828
:1048700013F0007F06D1FEF7D3FE001B0228F5D906
:1048800003202FE000202DE000202BE0012B2BD077
:104890001B4B5B6803F48001E269914226D103F06F
:1048A0003F02216A8A4223D1616A47F6C0721A40E8
:1048B000B2EB811F1ED103F44031A26A5208013AC3
:1048C000B1EB024F18D103F07063E26AB3EB026FF1
:1048D00014D1002006E001207047012002E00120F1
:1048E00000E0002002B070BD0120FBE70120F9E7E5
:1048F0000120F7E70120F5E70120F3E70120F1E7C8
:10490000003802400000474208B5254B9B6803F081
:104910000C03042B3FD0082B3FD1214B5A6802F0E7
:104920003F025B6813F4800F12D01D4B5968C1F32E
:1049300088111C480023A1FB0001FCF7A1FB184BC8
:104940005B68C3F3014301335B00B0FBF3F025E088
:10495000134B5968C1F3881C4FEA4C11B1EB0C00A2
:104960006EEB0E0E4FEA8E1343EA90638101091A33
:1049700063EB0E03DB0043EA5173C90011EB0C0C2F
:1049800043F10003990200234FEA8C2041EA9C5135
:10499000FCF776FBD3E7034800E0034808BD00BFFF
:1049A0000038024040787D010024F400002800F027
:1049B0009B8070B50D4604464F4B1B6803F0070300
:1049C0008B4208D2CBB24C4A1370136803F0070332
:1049D0008B4240F08B80236813F0020F17D013F046
:1049E000040F04D0454A936843F4E053936023686E
:1049F00013F0080F04D0414A936843F46043936076
:104A00003E4A936823F0F003A1680B439360236848
:104A100013F0010F32D06368012B21D09A1E012AB6
:104A200025D9364A126812F0020F61D033498A68DC
:104A300022F0030213438B60FEF7F2FD06462F4B74
:104A40009B6803F00C036268B3EB820F16D0FEF78D
:104A5000E7FD801B41F288339842F0D9032042E001
:104A6000264A126812F4003FE0D101203BE0234ABD
:104A7000126812F0007FD9D1012034E01E4B1B6870
:104A800003F00703AB4207D9EAB21B4B1A701B684D
:104A900003F00703AB422DD1236813F0040F06D0B7
:104AA000164A936823F4E053E1680B43936023684C
:104AB00013F0080F07D0114A936823F4604321696B
:104AC00043EAC1039360FFF71FFF0C4B9B68C3F3DE
:104AD00003130B4AD35CD8400A4B18600A4B186882
:104AE000FEF752FD002070BD012070470120FAE75B
:104AF0000120F8E70120F6E7003C024000380240C0
:104B0000DC0D0108040000200C000020014B186897
:104B1000704700BF0400002008B5FFF7F7FF044B03
:104B20009B68C3F38223034AD35CD84008BD00BF0F
:104B300000380240EC0D010808B5FFF7E7FF044B11
:104B40009B68C3F34233034AD35CD84008BD00BF1F
:104B500000380240EC0D010870B582B00446002315
:104B60000193006800F089FF054610B1284602B0A5
:104B700070BD206801F07AFA38B90123A364A36CF0
:104B8000012B0BD02E46284614E00023A364206896
:104B900000F073FF0028F2D00546E7E70021206807
:104BA00001F0D2F80028EDD04FF08055DEE7019BF0
:104BB00001330193019A4FF6FE739A4213D896B9C6
:104BC0000021206801F0C0F8E0B91249206801F026
:104BD00099F90646C0B90021206800F039FFC30FDB
:104BE000E5D01E46E3E7019A4FF6FE739A420ED8CF
:104BF00010F0804302D001236364B7E700226264AF
:104C00001D46B3E70546B1E74FF08055AEE74FF0DC
:104C10008075ABE7000010C1F0B589B004460F46BF
:104C2000FEF7FEFC0646002300930193082120684E
:104C300000F0E0FF054610B1284609B0F0BD216D37
:104C40000904206801F080F805460028F4D14FF0EF
:104C5000FF33029308230393302304930223059325
:104C6000002306930123079302A9206800F0F3FEB6
:104C7000206801F099F8054658B1DDE700F0C3FE61
:104C80004DF825000135FEF7CBFC831BB3F1FF3F48
:104C90003FD02068436B13F02A0F07D1436B13F406
:104CA000001FEBD1436B13F4005FECD1436B13F0A7
:104CB000080F25D1436B13F0020F24D1456B15F07B
:104CC000200523D140F23A538363019A130203F47F
:104CD0007F0343EA0263110A01F47F410B4343EA75
:104CE00012633B60009A130203F47F0343EA0263FA
:104CF000110A01F47F410B4343EA12637B609BE797
:104D00000825856398E70225856395E72025856357
:104D100092E74FF000458FE710B582B004460021BE
:104D200000910191006800F093FE10F0007F13D114
:104D300069462046FFF770FF80B9019B13F4802F6E
:104D40000ED0216D0904206800F0FEFF30B9022169
:104D5000206801F011F801E04FF4006002B010BDCE
:104D60004FF08060FAE710B582B004460021009150
:104D70000191006800F06CFE10F0007F13D16946CD
:104D80002046FFF749FF80B9019B13F4803F0ED006
:104D9000216D0904206800F0D7FF30B90021206898
:104DA00000F0EAFF01E04FF4006002B010BD4FF0E8
:104DB0008060FAE770B581B104460E46016D0904C2
:104DC000006801F009F8054608B1284670BD0021C9
:104DD000206800F03DFE3060F7E74FF00065F4E733
:104DE0002DE9F04F87B005460C4616469B46DDF888
:104DF00040A0FEF715FC002C36D0814695F83470A3
:104E0000FFB2012F40F005810023AB6306EB0B03DB
:104E1000EA6D93422ED8032385F834302B680022A4
:104E2000DA626B6C012B00D076024FF0FF330093F7
:104E30004FEA4B2301939023029302230393002311
:104E40000493012305936946286800F004FEBBF132
:104E5000010F14D902232B633146286800F0FAFEB3
:104E6000A0B9DDF8048038E0AB6B43F00063AB63BE
:104E70000127D3E0AB6B43F00073AB63CEE00123BB
:104E80002B633146286800F0CDFEE9E72B68654AC0
:104E90009A63AB6B1843A863012385F83430002371
:104EA0002B63BBE0286800F0AEFD2070C0F3072341
:104EB0006370C0F30743A370000EE0700434A8F1E0
:104EC00004080136072EEDD9FEF7AAFBA0EB090076
:104ED000504510D2BAF1000F0DD02868466B40F251
:104EE0002A331E4015D1436B13F4004FECD0B8F1B8
:104EF000000FE9D0E6E72B684A4A9A63AB6B43F0B0
:104F00000043AB63012385F8343000232B63032770
:104F100084E0436B13F4807F05D0BBF1010F02D90D
:104F20006B6C032B38D12B685A6B12F0080F44D1ED
:104F30005A6B12F0020F4CD15A6B12F0200F54D161
:104F40002868436B13F4001F5BD0B8F1000F58D0F2
:104F500000F059FD2070C0F307236370C0F30743CE
:104F6000A370000EE0700434A8F10408FEF758FBAB
:104F7000A0EB0900504502D2BAF1000FE0D12B6836
:104F8000284A9A63AB6B43F00043AB63012385F877
:104F9000343000232B6341E000F0A4FE03460028D8
:104FA000C1D02A681F499163AA6B1343AB630123E5
:104FB00085F8343000232B6330E01A4A9A63AB6BD8
:104FC00043F00803AB63012385F8343000232B63DF
:104FD00024E0144A9A63AB6B43F00203AB630123F2
:104FE00085F8343000232B6318E00E4A9A63AB6BCC
:104FF00043F02003AB63012385F8343000232B6397
:105000000CE040F23A538363012385F834300027E3
:1050100004E0AB6B43F00053AB630127384607B0A5
:10502000BDE8F08FFF0540002DE9F04F8BB005463D
:105030000C4616469B46DDF850A0FEF7F1FA002C10
:1050400037D0804695F83470FFB2012F40F0E280EF
:105050000023AB6306EB0B03EA6D93422FD80323C7
:1050600085F834302B680022DA626B6C012B00D09B
:1050700076024FF0FF3304934FEA4B2305939023BE
:1050800006930023079308930123099304A9286832
:1050900000F0E1FCBBF1010F16D920232B63314650
:1050A000286800F007FE0190019BABB9DDF8149071
:1050B00040E0AB6B43F00063AB630127AFE0AB6B49
:1050C00043F00073AB63AAE010232B6331462868DA
:1050D00000F0D8FD0190E7E72B68534A9A63A86B6C
:1050E000019B1843A863012385F8343000232B6308
:1050F00095E023780393627843EA02230393A2782E
:1051000043EA02430393E27843EA026303930434DD
:10511000A9F1040903A9286800F078FC0136072EDC
:10512000E7D9FEF77DFAA0EB0800504510D2BAF19E
:10513000000F0DD02868466B40F21A331E4015D17F
:10514000436B13F4804FECD0B9F1000FE9D0E6E7E0
:105150002B68354A9A63A86B019B1843A863012307
:1051600085F8343000232B63032758E0436B13F496
:10517000807F05D0BBF1010F02D96B6C032B18D1D6
:105180002B685A6B12F0080F24D15A6B12F0020FE1
:105190002CD15A6B12F0100F34D0234A9A63AB6BA8
:1051A00043F01003AB63012385F8343000232B63F5
:1051B00035E000F097FD03460028E1D02A681A493F
:1051C0009163AA6B1343AB63012385F8343000234A
:1051D0002B6324E0144A9A63AB6B43F00803AB6380
:1051E000012385F8343000232B6318E00E4A9A63BC
:1051F000AB6B43F00203AB63012385F8343000232B
:105200002B630CE040F23A529A63012385F8343064
:10521000002704E0AB6B43F00053AB630127384633
:105220000BB0BDE8F08F00BFFF054000436E9B0F41
:105230000B70436EC3F383634B7090F8673003F0D9
:1052400003038B7090F86630CB7090F865300B716B
:1052500090F864304B71836E1B0DCB80B0F86A30D0
:1052600003F00F030B72836EC3F3C0334B72836E74
:10527000C3F380338B72836EC3F34033CB72836E80
:10528000C3F300330B7300234B73436C002B40F0CC
:105290008680826E40F6FC7303EA8203C26E43EAA4
:1052A00092730B61C36EC3F3C2630B7590F86F30DA
:1052B00003F007034B75C36EC3F342538B75C36E84
:1052C000C3F38243CB75C36EC3F3C2330B760B6952
:1052D000013343650A7E02F00702023293404365C0
:1052E0000A7A02F00F0C012202FA0CF28265520ACD
:1052F00002FB03F3C3654FF400730366C36EC3F38D
:1053000080334B76C36EC3F3C6138B76C36E03F044
:105310007F03CB76036FDB0F0B77036FC3F3417310
:105320004B77036FC3F382638B77036FC3F38353AE
:10533000CB77036FC3F3405381F82030002381F80B
:105340002130B0F8722002F0010281F82220026FB1
:10535000C2F3C03281F82320026FC2F3803281F899
:105360002420026FC2F3403281F82520026FC2F37D
:10537000003281F82620026FC2F3812281F82720B3
:10538000026FC2F3012281F82820026FC2F34602A5
:1053900081F82920012281F82A2018467047012B24
:1053A00011D1836E1B0403F47C13B0F86E201343F9
:1053B0000B610B6901339B024365C3654FF40073B6
:1053C000836503669AE70368054A9A63836B43F033
:1053D00080538363012380F834301846704700BF40
:1053E000FF05400070B590B004460123ADF81230BF
:1053F000006800F014FB00286CD0636C032B45D1CF
:10540000636C032B5DD1636C032B1DD0BDF81210B0
:1054100021650904206800F03AFD054600285BD1AB
:105420000021206800F014FB60660421206800F071
:105430000FFBA0660821206800F00AFBE0660C2143
:10544000206800F005FB20670421206800F000FBC5
:10545000000DE06405A92046FFF7E8FE00283ED1D4
:10546000226D12040023206800F056FC054698BB0C
:10547000234653F8106B93E807008DE807000434C7
:1054800094E80E00304600F0A5FA25E0206800F010
:10549000E9FC054600BB0021206800F0D9FA6067EE
:1054A0000421206800F0D4FAA0670821206800F0E9
:1054B000CFFAE0670C21206800F0CAFAC4F8800037
:1054C0009EE70DF11201206800F086FD05460028D8
:1054D00099D001E04FF08065284610B070BD4FF0C4
:1054E0008055F9E770B58AB004460023049305930C
:1054F000069307930893762309930AAB13E90700F1
:105500008DE8070004AB0ECB206800F063FA18B1F9
:10551000012528460AB070BD05461A4E0023C6F87C
:10552000A030206800F077FA0123C6F8A0300220EE
:10553000FEF77CF82046FFF70FFB30B1012584F819
:105540003450A36B0343A363E3E72046FFF74AFF0E
:1055500030B1012584F83450A36B0343A363D8E72B
:105560004FF40071206800F045FB0028D1D023687B
:1055700005499963A36B0343A363012584F8345061
:10558000C7E700BF00802542FF054000A8B110B565
:10559000044690F8343063B1032384F83430204655
:1055A000FFF7A0FF58B9A0632063012384F83430CB
:1055B00010BD0377FDF768FEEEE70120704701207C
:1055C000F6E7436C0B60836C4B60C36C8B60036DC0
:1055D000CB60436D0B61836D4B61C36D8B61036E5B
:1055E000CB6100207047000030B58BB004460D46FB
:1055F000032380F83430436C032B1CD0B1F5805F5B
:1056000008D0B1F5006F0AD079B1836B43F0006325
:10561000836314E0836B43F0805383630FE0FFF7F1
:105620007BFBA36B0343A36309E0FFF79CFBA36B26
:105630000343A36303E0836B43F080538363A36B53
:10564000C3B12368174A9A63012584F834504FF494
:105650000071206800F0CEFA30B1236811499963D7
:10566000A36B0343A3630125012384F83430284648
:105670000BB030BD63680493A3680593E368069399
:10568000079563690893A36909930AAB13E90700B7
:105690008DE8070004AB0ECB206800F09BF90025D5
:1056A000D5E700BFFF05400010B582B004460023D7
:1056B000019301A9FFF77EFB10B1A36B0343A36322
:1056C0000198C0F3432002B010BD000038B5044675
:1056D0000268136923F44053C1680B431361836864
:1056E0000269134342691343C2691A430168CB68D4
:1056F00023F4164323F00C031343CB600268536971
:1057000023F4407381690B4353610368314A934228
:1057100006D002F58062934202D0FFF7FDF901E066
:10572000FFF70AFAE369B3F5004F29D00021031807
:1057300049411B1841F10001C90041EA5371DB00E6
:10574000181863684FEA83024FEA937341F100012E
:10575000FBF796FC204DA5FB00325109642303FBA7
:1057600011031B013233A5FB03235B0903F0F00295
:1057700002EB011203F00F03216813448B6038BD64
:105780000023021843EB0301121841F10001C90084
:1057900041EA5271D200101841F10001626892187A
:1057A0005B41FBF76DFC0C4DA5FB003251096423F6
:1057B00003FB1103DB003233A5FB03235B095A0013
:1057C00002F4F87202EB011203F00703216813449C
:1057D0008B60D4E7001001401F85EB512DE9F843A1
:1057E00005460F4616469946DDF820802C68246849
:1057F00037EA04030CBF4FF0010C4FF0000CB44526
:105800002DD1B8F1FF3FF1D0B8F1000F05D0FDF771
:1058100007FFA0EB09004045E8D92A6802F10C0314
:1058200053E8003F23F4D0730C3242E800310029E2
:10583000F3D12A6802F1140353E8003F23F0010377
:10584000143242E800310029F3D1202385F83D309D
:1058500085F83E30002385F83C30032000E000202E
:10586000BDE8F88358B310B5044690F83D300BB34B
:10587000242384F83D302268D36823F40053D36096
:105880002046FFF723FF2268136923F49043136136
:105890002268536923F02A0353612268D36843F4D2
:1058A0000053D36000202064202384F83D3084F826
:1058B0003E3010BD80F83C30FDF7EEFDD8E701200A
:1058C00070472DE9F04182B01E4690F83D30DBB2C2
:1058D000202B54D104460D469046002953D0002A6F
:1058E00053D090F83C30012B51D0012380F83C304C
:1058F00000230364212380F83D30FDF791FE074625
:10590000A4F82480A4F82680A368B3F5805F05D0AE
:105910004FF00008002384F83C3012E0236913B1F3
:105920004FF00008F6E7A8460025F3E738F8023BF9
:105930002268C3F308035360E28C92B2013A92B238
:10594000E284E38C9BB273B100963B460022802137
:105950002046FFF743FFE0B9002DE7D015F8012BF3
:1059600023685A60E8E700963B4600224021204623
:10597000FFF734FF78B9202384F83D3000E002209F
:1059800002B0BDE8F0810120FAE70120F8E702202B
:10599000F6E70320F4E70320F2E700000B4B1B6857
:1059A0000B4AA2FB03235B0A41F2883202FB03F39A
:1059B0001A46013B3AB1426B12F0800FF8D0C52372
:1059C0008363002070474FF00040704704000020C0
:1059D000D34D621084B00DF1040C8CE80E000B4620
:1059E0001343039A1343049A1343059A1343069AE5
:1059F0001343426822F4FD4222F07F0213434360C6
:105A0000002004B07047D0F8800070470B68C0F8E1
:105A10008030002070470323036000207047006837
:105A200000F0030070470B6883604B688A6813437B
:105A3000CA6813430A691343C26822F47F6222F0E2
:105A40000F021343C360002070470069C0B2704763
:105A50001430405870470B6843624B6883628B6810
:105A6000CA6813430A6913434A691343C26A22F09E
:105A7000F7021343C3620020704710B586B0044696
:105A8000002301930293039304934FF480630593DF
:105A900001A9FFF7C8FF2046FFF780FF06B010BD41
:105AA00038B504460D46504B1B685049A1FB031303
:105AB0005B0A03FB02F21346013A002B5DD0636BD5
:105AC00013F0450FF7D013F4006FF4D1636B13F0AC
:105AD000040F06D1636B13F0010F05D00120A06302
:105AE0004DE00420A0634AE0C523A3632046FFF7EE
:105AF000ACFFA84201D0012041E000212046FFF781
